:100000000C9463000C94DB0E0C94DB0E0C94DB0E52
:100010000C94DB0E0C94DB0E0C94DB0E0C94510D47
:100020000C94DB0E0C94DB0E0C94DB0E0C94DB0EAC
:100030000C94DB0E0C94DB0E0C94DB0E0C94DB0E9C
:100040000C94DB0E0C94DB0E0C94DB0E0C94DB0E8C
:100050000C94DB0E0C9469090C94DB0E0C94DB0EF3
:100060000C94DB0E0C94DB0E0C94DB0E0C94DB0E6C
:100070000C94DB0E0C94DB0E0C94DB0E0C94DB0E5C
:100080000C94DB0E0C94DB0E0C94DB0E0C94DB0E4C
:100090000C94DB0E0C94DB0E0C94DB0E0C94DB0E3C
:1000A0000C94DB0E0C94DB0E0C94DB0E8706910691
:1000B0009B06A506AF06B906C306010001608001D4
:1000C000600166001DBA11241FBECFEFDAE0DEBF6B
:1000D000CDBFEAEBF0E040E017C0B591A5913591B6
:1000E0002591059107FD0CC095918591EF01F92FA0
:1000F000E82F05900D92A217B307D9F7FE0104C0AF
:100100001D92A217B307E1F7E63CF40731F70E940E
:1001100052040C948B00F894FFCFCF93DF93CDB7AC
:10012000DEB7A2970FB6F894DEBF0FBECDBF6E8FBD
:100130007F8F88A399A34AA30E949B0A0E94080E5E
:1001400080E090E0A8ECB2E489839A83AB83BC831F
:1001500020E030E04AEF54E469817A818B819C8110
:100160000E94D40EDC01CB018C8B9D8BAE8BBF8BA0
:1001700020E030E040E85FE36C897D898E899F89CB
:100180000E94CA0E88232CF481E090E0998F888F1A
:100190003FC020E03FEF4FE757E46C897D898E89AF
:1001A0009F890E94CF0E18164CF520E030E040E207
:1001B00051E469817A818B819C810E94D40EDC019B
:1001C000CB01BC01CD010E94160BDC01CB01998F44
:1001D000888F0FC088EC90E09B8F8A8F8A8D9B8DD3
:1001E0000197F1F79B8F8A8F888D998D0197998F51
:1001F000888F888D998D892B69F714C06C897D89CA
:100200008E899F890E94160BDC01CB01998F888F04
:10021000888D998D9D8F8C8F8C8D9D8D0197F1F799
:100220009D8F8C8F0E94190E80E090E0A8ECB2E4C4
:100230008E839F83A887B98720E030E04AEF54E49B
:100240006E817F81888599850E94D40EDC01CB0167
:100250008A879B87AC87BD8720E030E040E85FE37A
:100260006A857B858C859D850E94CA0E88232CF427
:1002700081E090E09F878E873FC020E03FEF4FE70F
:1002800057E46A857B858C859D850E94CF0E181664
:100290004CF520E030E040E251E46E817F818885BA
:1002A00099850E94D40EDC01CB01BC01CD010E94D6
:1002B000160BDC01CB019F878E870FC088EC90E086
:1002C000998B888B888999890197F1F7998B888B0D
:1002D0008E859F8501979F878E878E859F85892B29
:1002E00069F714C06A857B858C859D850E94160BF5
:1002F000DC01CB019F878E878E859F859B8B8A8BA8
:100300008A899B890197F1F79B8B8A8B10924B010D
:100310000E94F70D82E40E94240C8D838D8182312E
:1003200011F08FEF36C00E94760E8E8D9F8DA8A1A2
:10033000B9A1BC01CD010E949B0360E271EA87E094
:1003400090E00E94D20160E08EE00E949C0C60E090
:100350008FE00E949C0C8EE10E94240C8460682F28
:100360008EE10E949C0C8CE00E94240C8360682F1C
:100370008CE00E949C0C64E086E20E949C0C8AA1A6
:10038000882F90E060E870E00E94560A0E94820E7A
:1003900080E0A2960FB6F894DEBF0FBECDBFDF910E
:1003A000CF910895CF93DF9300D000D000D0CDB788
:1003B000DEB76B837C838D839E836B817C818D8193
:1003C0009E810E94DB0ADC01CB0120E030EC43EF90
:1003D00055E4BC01CD010E94CA0E18161CF01A8209
:1003E0001982BCC06B817C818D819E810E94DB0A59
:1003F000DC01CB0120E030E842E256E4BC01CD0153
:100400000E94CA0E18162CF081E090E09A8389832E
:10041000A5C06B817C818D819E810E94DB0ADC01FD
:10042000CB0120E030EC43E756E4BC01CD010E9453
:10043000CA0E18162CF082E090E09A8389838EC051
:100440006B817C818D819E810E94DB0ADC01CB0166
:1004500020E030E842EA56E4BC01CD010E94CA0E19
:1004600018162CF083E090E09A83898377C06B8123
:100470007C818D819E810E94DB0ADC01CB0120E022
:1004800034E244EF56E4BC01CD010E94CA0E1816B6
:100490002CF084E090E09A83898360C06B817C813A
:1004A0008D819E810E94DB0ADC01CB0120E034EECD
:1004B00042E257E4BC01CD010E94CA0E18162CF08E
:1004C00085E090E09A83898349C06B817C818D812E
:1004D0009E810E94DB0ADC01CB0120E034E244E78C
:1004E00057E4BC01CD010E94CA0E18162CF086E01C
:1004F00090E09A83898332C06B817C818D819E815B
:100500000E94DB0ADC01CB0120E034E244EF57E437
:10051000BC01CD010E94CA0E18162CF087E090E0B5
:100520009A8389831BC06B817C818D819E810E940F
:10053000DB0ADC01CB0120E034E244E758E4BC01F3
:10054000CD010E94CA0E18162CF088E090E09A8324
:10055000898304C089E090E09A8389838DE10E94B9
:10056000240C282F2F7089819A8182959295907FF3
:100570009827807F9827822B682F8DE10E949C0C02
:10058000000026960FB6F894DEBF0FBECDBFDF91F8
:10059000CF910895CF93DF93CDB7DEB78AE290E095
:1005A0002AE230E0F90120812E7FFC0120838AE2DB
:1005B00090E02AE230E0F90120812D7FFC012083C8
:1005C0008AE290E02AE230E0F90120812B7FFC01F1
:1005D00020838AE290E02AE230E0F9012081277F3F
:1005E000FC01208384E290E024E230E0F9012081E4
:1005F0002F7EFC01208384E290E024E230E0F901C8
:1006000020812F7DFC01208384E290E024E230E011
:10061000F90120812F7BFC01208384E290E024E219
:1006200030E0F90120812F77FC0120838BE290E0FC
:100630002BE230E0F90120812160FC0120838BE274
:1006400090E02BE230E0F90120812260FC01208360
:100650008BE290E02BE230E0F90120812460FC0184
:1006600020838BE290E02BE230E0F90120812860CA
:10067000FC01208385E290E025E230E0F901208151
:100680002061FC01208385E290E025E230E0F90161
:1006900020812062FC01208385E290E025E230E0A9
:1006A000F90120812064FC01208385E290E025E2AD
:1006B00030E0F90120812068FC01208348E050E00F
:1006C00060E070E080E091E00E94B70E48E050E00A
:1006D00060E070E088E091E00E94B70E48E050E0F2
:1006E00060E070E080E191E00E94B70E1092180186
:1006F00080915F01882F90E0A0E0B0E0BC018A2FDC
:100700000E94990E8093190180916001882F90E0DA
:10071000A0E0B0E0BC018A2F0E94990E80931A01DC
:1007200080911A01803118F086E080931A01000050
:10073000DF91CF9108952F923F924F925F926F92E7
:100740007F928F929F92AF92BF92CF92DF92EF9261
:10075000FF920F931F93CF93DF93CDB7DEB72C9704
:100760000FB6F894DEBF0FBECDBF69877A878B873F
:100770009C8789859A85AB85BC855C016D01BB0F23
:10078000880B982FDC01E82EF82E082F182F2A2D21
:100790003B2D4C2D5D2D6E2D7F2D802F912F03E154
:1007A0000E941F0D222E332E442E552E662E772E9C
:1007B000882E992EA12C0F2EF8E4BF2EF02D0F2E8F
:1007C000F8EECF2EF02DDD24D394E12CF12C00E0B7
:1007D00010E0222D332D442D552D662D772D882D9B
:1007E000992D0E945C0EA22EB32EC42ED52EE62E7D
:1007F000F72E082F192FA982BA82CB82DC82ED82D4
:10080000FE820F83188729813A814B815C816D813B
:100810007E818F81988500E10E94460CA22EB32E26
:10082000C42ED52EE62EF72E082F192F8A2D682FCD
:1008300086E00E949C0C29813A814B815C816D810C
:100840007E818F81988508E00E94460CA22EB32EEF
:10085000C42ED52EE62EF72E082F192F8A2D682F9D
:1008600087E00E949C0C8981682F88E00E949C0C84
:1008700000002C960FB6F894DEBF0FBECDBFDF91FF
:10088000CF911F910F91FF90EF90DF90CF90BF908D
:10089000AF909F908F907F906F905F904F903F9020
:1008A0002F900895CF93DF93CDB7DEB7F894A89536
:1008B00084E090E088709927892B11F088E201C0CC
:1008C00088E094E09770892B982F88E10FB6F89410
:1008D000A895809360000FBE909360000E94B80CB2
:1008E0000E9403050E94CA02109245016CE783E052
:1008F0000E94540682E090E088709927892B11F0BD
:1009000088E201C088E092E09770892B982F88E1F7
:100910000FB6F894A895809360000FBE9093600086
:100920007894A89580915D018823D1F00E94B30D41
:1009300010925D010E94B00580911B0180931F0100
:1009400080911C01809320018091180180932101E6
:1009500084E00E94DC066CE370E084E00E947F0C7F
:1009600080915E018823E9F2F894A89584E090E0F4
:1009700088709927892B11F088E201C088E094E003
:100980009770892B982F88E10FB6F894A8958093DB
:1009900060000FBE9093600010925E010E94060DF1
:1009A0008823C1F486E00E94980B892B99F08091EE
:1009B000320182958F7092E0980F809132018F7092
:1009C000692F0E94AC089091330180913101692F09
:1009D0000E94450BA89582E090E088709927892BAA
:1009E00011F088E201C088E092E09770892B982F7F
:1009F00088E10FB6F894A895809360000FBE90939D
:100A0000600078948ECFCF93DF93CDB7DEB78DE2C1
:100A100090E02DE230E0F90120812F7BFC01208362
:100A20008EE290E02EE230E0F90120812064FC01AA
:100A300020838AE690E02AE630E0F90120812063F5
:100A4000FC0120838DE390E02DE330E0F90120816B
:100A50002064FC01208380916201882F90E0A0E057
:100A6000B0E0BC018A2F0E94990E80931B018091F7
:100A70006301882F90E0A0E0B0E0BC018A2F0E94C3
:100A8000990E80931C0180911B018F3F49F4809146
:100A90001B018F3F29F410921C0181E080931B0100
:100AA0008BE191E00E94710B80916401882F90E0AE
:100AB000A0E0B0E0BC018A2F0E94990E8093400113
:100AC000809140018A3010F01092400180916501C0
:100AD000882F90E0A0E0B0E0BC018A2F0E94990E20
:100AE00080933F0180913F01823120F081E180932A
:100AF0003F0107C080913F01823018F482E080936B
:100B00003F0180914001882F90E0A0E0B0E09C017F
:100B1000AD0160E271EA87E090E00E943B0EDC01EB
:100B2000CB01805B994DAB48BC4C809341019093C5
:100B30004201A0934301B093440120913F01809171
:100B4000410190914201A0914301B0914401422F93
:100B5000BC01CD010E948D000000DF91CF9108956E
:100B6000CF93DF931F92CDB7DEB7198294C08091E7
:100B70001901882F90E02981222F30E002C095953D
:100B800087952A95E2F781709927892B71F18981E0
:100B9000882F90E0885F9E4FFC01908180916101D9
:100BA000891788F480911801482F8981282F30E017
:100BB00081E090E002C0880F991F2A95E2F7842B0C
:100BC0008093180165C080911801482F8981282FD2
:100BD00030E081E090E002C0880F991F2A95E2F78B
:100BE000809584238093180153C08981882F90E0D9
:100BF000885F9E4FFC019081809161018917C0F44C
:100C000080911801482F8981282F30E081E090E001
:100C100002C0880F991F2A95E2F7842B8093180150
:100C20008981882F90E0805F9E4FFC01108230C048
:100C30008981882F90E09C01205F3E4FF90120813F
:100C40002F5F805F9E4FFC0120838981882F90E079
:100C5000805F9E4FFC01908180911A019817C0F02F
:100C600080911801482F8981282F30E081E090E0A1
:100C700002C0880F991F2A95E2F7809584238093FC
:100C800018018981882F90E0805F9E4FFC011082BF
:100C900089818F5F89838981883008F468CF00005B
:100CA0000F90DF91CF910895CF93DF9300D0CDB710
:100CB000DEB789836A8384E490E0FC01108285E4D6
:100CC00090E0FC01108287E490E02A81FC012083FF
:100CD00084E490E024E430E0F90120812260FC010A
:100CE00020838981882F90E0092E000CAA0BBB0B72
:100CF00041E050E026E030E0841B950B28173907CF
:100D000008F44BC08A5A9F4FFC010C94C40E85E432
:100D100090E025E430E0F90120812160FC0120838E
:100D20003CC085E490E025E430E0F90120812260B8
:100D3000FC01208332C085E490E025E430E0F90135
:100D400020812360FC01208328C085E490E025E415
:100D500030E0F90120812460FC0120831EC085E47D
:100D600090E025E430E0F90120812560FC0120833A
:100D700014C085E490E025E430E0F901208126608C
:100D8000FC0120830AC085E490E025E430E0F9010D
:100D900020812760FC01208300008EE690E02EE693
:100DA00030E0F90120812260FC01208300000F90D7
:100DB0000F90DF91CF910895CF93DF9300D0CDB7FF
:100DC000DEB78A83198223C08981282F30E0898188
:100DD000882F90E0815E9E4FFC0140818981882FA1
:100DE00090E0019681709078992324F401978E6F9A
:100DF0009F6F0196835E9E4FFC0180814827C90149
:100E0000815E9E4FFC01408389818F5F8983898148
:100E1000282F30E08A81882F90E001972817390722
:100E20009CF219828A81882F90E00197815E9E4F03
:100E300020E8FC01208331C08981882F90E0815E09
:100E40009E4FFC018081882329F58981882F90E0BD
:100E5000815E9E4F21E0FC0120838A81882F90E0F3
:100E600001972A81222F30E021503109215E3E4F27
:100E7000F9012081622F2981422F50E021E030E0EA
:100E800002C0220F331F4A95E2F7262B815E9E4F48
:100E9000FC01208389818F5F89838981282F30E03D
:100EA0008A81882F90E00197281739072CF20000DB
:100EB0000F900F90DF91CF910895CF93DF93CDB72F
:100EC000DEB789E290E0FC018081882F90E081709C
:100ED0009927892B29F0809100018F5F8093000171
:100EE00089E290E0FC018081882F90E08270992750
:100EF000892B29F0809101018F5F8093010189E2A4
:100F000090E0FC018081882F90E084709927892BE4
:100F100029F0809102018F5F8093020189E290E0C5
:100F2000FC018081882F90E088709927892B29F017
:100F3000809103018F5F8093030183E290E0FC01C5
:100F40008081882F90E080719927892B29F08091EA
:100F500004018F5F8093040183E290E0FC018081B3
:100F6000882F90E080729927892B29F080910501C4
:100F70008F5F8093050183E290E0FC018081882FE0
:100F800090E080749927892B29F0809106018F5F6A
:100F90008093060183E290E0FC01808188232CF499
:100FA000809107018F5F809307010000DF91CF914F
:100FB00008950FC00E94A90E38F00E94B00E20F0D4
:100FC000952311F00C94BE0E0C94D80E11240C94A1
:100FD000A30E0E94E10B70F3959FC1F3950F50E0B3
:100FE000551F629FF001729FBB27F00DB11D639FDB
:100FF000AA27F00DB11DAA1F649F6627B00DA11D81
:10100000661F829F2227B00DA11D621F739FB00D26
:10101000A11D621F839FA00D611D221F749F332796
:10102000A00D611D231F849F600D211D822F762F2F
:101030006A2F11249F5750409AF0F1F088234AF00C
:10104000EE0FFF1FBB1F661F771F881F9150504078
:10105000A9F79E3F510580F00C94BE0E0C94A30E90
:101060005F3FE4F3983ED4F3869577956795B795FF
:10107000F795E7959F5FC1F7FE2B880F911D969519
:10108000879597F90895CF93DF9300D01F92CDB73E
:10109000DEB78B83198220C08B81882F90E0019767
:1010A000815D9E4FFC018081882F90E02981222F55
:1010B00030E002C0959587952A95E2F781709927CF
:1010C000892B39F08981882F90E0815D9E4FFC014A
:1010D000108289818F5F89838981282F30E08B81FD
:1010E000882F90E0019728173907B4F21A8223C09D
:1010F0008A81282F30E08A81882F90E0815D9E4F81
:10110000FC0140818A81882F90E00196817090785F
:10111000992324F401978E6F9F6F0196835E9E4FF3
:10112000FC0180814827C901815D9E4FFC014083FD
:101130008A818F5F8A838A81282F30E08B81882F74
:1011400090E00197281739079CF200000F900F904C
:101150000F90DF91CF910895CF93DF9300D0CDB75B
:10116000DEB789836A8389818A3020F089E08093A1
:10117000400103C08981809340018A81823120F03F
:1011800081E180933F010AC08A81823020F482E0AD
:1011900080933F0103C08A8180933F018091400189
:1011A000882F90E0A0E0B0E09C01AD0160E271EA20
:1011B00087E090E00E943B0EDC01CB01805B994D03
:1011C000AB48BC4C8093410190934201A0934301F2
:1011D000B093440120913F018091410190914201DF
:1011E000A0914301B0914401422FBC01CD010E9466
:1011F0008D002091400180916401882F90E0622F42
:101200000E94680E20913F0180916501882F90E037
:10121000622F0E94680E00000F900F90DF91CF9117
:1012200008950F931F93CF93DF9300D000D01F92A8
:10123000CDB7DEB79D838C8382E10E94240C8A8324
:101240008FEF0E94D50D0E94820E8A81882F90E038
:1012500080749927892B91F18A81882F90E0807280
:101260009927892B59F510924B0183E10E94240C98
:101270008B8380E10E94240C682F8DE00E949C0CDF
:1012800090914C018B819817B9F419820FC0898114
:1012900091E0980F9983882F90E02C813D818901FE
:1012A000080F191F0E94C40DF80180830E94690D68
:1012B000892B69F780E003C08EEF01C08FEF0F909C
:1012C0000F900F900F900F90DF91CF911F910F9182
:1012D00008951F920F9200905F000F9211242F9398
:1012E0003F934F935F936F937F938F939F93AF93AE
:1012F000BF93EF93FF93CF93DF93CDB7DEB780918A
:1013000045018F5F809345010E945D0780914501F3
:101310008639D0F01092450180E091E0CC01A0E840
:10132000AA2F28E030E0AC016A2F88E091E00E940B
:10133000380D48E050E060E070E080E091E00E940D
:10134000B70E81E080935D0180914501823311F4F5
:101350000E94A20D0000DF91CF91FF91EF91BF910C
:10136000AF919F918F917F916F915F914F913F913D
:101370002F910F9000925F000F901F901895882476
:101380009924F401E401B0E49F93AA279A158B04F1
:101390009C04ED05FE05CF05D007A10798F4AD2FFD
:1013A000DC2FCF2FFE2FE92D982C892E982F872FF9
:1013B000762F652F542F432F322F2227B85031F725
:1013C000BF9127C01B2EBF91BB27220F331F441F85
:1013D000551F661F771F881F991F881C991CEE1FB9
:1013E000FF1FCC1FDD1FAA1FBB1F8A149B04EC0527
:1013F000FD05CE05DF05A007B10748F08A189B0858
:10140000EC09FD09CE09DF09A00BB10B21601A948C
:10141000E1F62EF49401AF01BE01CD01000C089558
:10142000CF93DF9300D000D000D0CDB7DEB79D833F
:101430008C836E8382E20E94240C882F90E09B8331
:101440008A838E81282F30E08A819B81820F931FAF
:101450008F3F910521F01CF08A8180958E8319823F
:1014600010C08981882F90E02C813D81820F931FCD
:10147000FC018081682F80E00E949C0C89818F5F35
:10148000898399818E81981760F39A818E81890F63
:10149000682F82E20E949C0C8E8126960FB6F894EB
:1014A000DEBF0FBECDBFDF91CF910895CF93DF9305
:1014B00000D000D0CDB7DEB79A8389837C836B835D
:1014C0008B819C81892BB9F489819A8199231CF4A1
:1014D0001A82198208C089819A810F9724F08EE0C0
:1014E00090E09A83898389818F5F8067682F89E084
:1014F0000E949C0C18C089819A8102972CF482E08A
:1015000090E09A83898308C089819A81429724F068
:1015100081E190E09A838983898182508068682F75
:1015200089E00E949C0C00000F900F900F900F908C
:10153000DF91CF910895CF93DF93CDB7DEB784E2EB
:1015400090E024E230E0F90120812160FC01208359
:1015500085E290E025E230E0F90120812160FC0184
:10156000208380E390E020E330E0F90120812160D6
:10157000FC01208381E390E021E330E0F901208148
:101580002160FC01208384E290E024E230E0F90154
:1015900020812760FC0120838CE490E02CE430E083
:1015A000F90120812065FC0120830000DF91CF91AB
:1015B0000895E89409C097FB3EF490958095709546
:1015C00061957F4F8F4F9F4F9923A9F0F92F96E98F
:1015D000BB279395F695879577956795B795F11104
:1015E000F8CFFAF4BB0F11F460FF1BC06F5F7F4FA1
:1015F0008F4F9F4F16C0882311F096E911C07723B3
:1016000021F09EE8872F762F05C0662371F096E8BB
:10161000862F70E060E02AF09A95660F771F881F8A
:10162000DAF7880F9695879597F908950E94E90B48
:1016300088F09F5798F0B92F9927B751B0F0E1F093
:10164000660F771F881F991F1AF0BA95C9F714C043
:10165000B13091F00E94A20EB1E008950C94A20E58
:10166000672F782F8827B85F39F0B93FCCF386957C
:1016700077956795B395D9F73EF4909580957095D9
:1016800061957F4F8F4F9F4F0895CF93DF9300D089
:10169000CDB7DEB789836A838A81803120F086E006
:1016A00080931A0103C08A8180931A0120911A0144
:1016B00080916001882F90E0622F0E94680E8981DE
:1016C000809319012091190180915F01882F90E08A
:1016D000622F0E94680E00000F900F90DF91CF9153
:1016E0000895CF93DF931F92CDB7DEB71982809113
:1016F0001B01881F8827881F898380911B01982FD1
:10170000990F8981890F80931D0180911C01881F89
:101710008827881F898380911C01982F990F8981C0
:10172000890F80931E0100000F90DF91CF910895E3
:10173000CF93DF931F92CDB7DEB7898390912F01AE
:1017400080911B01981799F49091300180911C01B0
:10175000981769F48981882F90E00197815D9E4FE9
:10176000FC01808188231CF481E090E002C080E0CD
:1017700090E00F90DF91CF910895990F0008550FD9
:10178000AA0BE0E8FEEF16161706E807F907C0F007
:1017900012161306E407F50798F0621B730B840B0F
:1017A000950B39F40A2661F0232B242B252B21F4E9
:1017B00008950A2609F4A140A6958FEF811D811D89
:1017C000089557FD9058440F551F59F05F3F71F031
:1017D0004795880F97FB991F61F09F3F79F0879598
:1017E0000895121613061406551FF2CF4695F1DF21
:1017F00008C0161617061806991FF1CF86957105B1
:10180000610508940895CF93DF931F92CDB7DEB79B
:101810008983898180934C018981882339F00E94D2
:101820007D0D698182E20E949C0C02C00E94900D95
:101830008FEF0E94D50D65E881E00E949C0C0000AE
:101840000F90DF91CF910895CF93DF9300D000D018
:10185000CDB7DEB78C838C818F7789831B821A8208
:101860000E94E60D89810E94EC0C198289810E94F8
:10187000EC0C8B830E94F70D8B810F900F900F90D3
:101880000F90DF91CF91089597FB10F81694000800
:101890000F93083098F00850232F342F452F562FE0
:1018A000672F782F892F902DF4CF059497958795E2
:1018B0007795679557954795379527950A95AAF790
:1018C0000F910895CF93DF931F92CDB7DEB7898331
:1018D0000E94820E8981882319F00E947D0D02C02A
:1018E0000E94900D60E08DE00E949C0C60E082E21E
:1018F0000E949C0C80E00F90DF91CF910895CF93D0
:10190000DF9300D01F92CDB7DEB789837B836A83D4
:1019100081E00E94620C69818FE191E00E94100ACF
:101920000E94D20C86E00E94030C00000F900F90E2
:101930000F90DF91CF910895CF93DF9300D01F9246
:10194000CDB7DEB78A836B838A81806889830E94E2
:10195000E60D89810E94EC0C8B810E94EC0C0E94A8
:10196000F70D00000F900F900F90DF91CF91089529
:10197000CF93DF93CDB7DEB787E290E027E230E088
:10198000F90120812068FC01208388E290E028E2B0
:1019900030E0F90120812068FC0120830000DF9104
:1019A000CF910895CF93DF93CDB7DEB763E881E0A1
:1019B0000E949C0C000082E10E94240C882F90E081
:1019C00088709927892BB9F368E082E10E949C0C0A
:1019D00080E0DF91CF910895CF93DF931F92CDB731
:1019E000DEB789838EE490E02981FC01208300002A
:1019F0008DE490E0FC0180818823D4F78EE490E0B0
:101A0000FC0180810F90DF91CF910895CF93DF93F8
:101A1000CDB7DEB78FE291E00E941109882341F42F
:101A200086E00E94430886E00E94030C80E004C028
:101A300086E00E94030C8FEFDF91CF9108950F9302
:101A4000083090F0982F872F762F652F542F432F33
:101A5000322F22270850F4CF220F331F441F551F67
:101A6000661F771F881F991F0A95B2F70F91089577
:101A7000CF92DF92EF92DC016A01E62E280F391F28
:101A8000A217B30751F0F6014491E7FC40814D9352
:101A90004FEFC41AD40AE40AF3CFEF90DF90CF904F
:101AA00008951F920F9200905F000F9211248F9360
:101AB000CF93DF93CDB7DEB781E080935E01000066
:101AC000DF91CF918F910F9000925F000F901F9048
:101AD0001895CF93DF93CDB7DEB783E10E94240C36
:101AE000282F30E080914B01882F90E0A901481BFE
:101AF000590BCA01DF91CF910895CF93DF93CDB7F2
:101B0000DEB781E080934A018DE10E94240C816060
:101B1000682F8DE10E949C0C0000DF91CF91089509
:101B2000CF93DF93CDB7DEB710924A018DE10E94CB
:101B3000240C8E7F682F8DE10E949C0C0000DF91A9
:101B4000CF910895CF93DF93CDB7DEB788E290E0D1
:101B500028E230E0F90120812F77FC01208300008A
:101B6000DF91CF910895CF93DF93CDB7DEB788E2B1
:101B700090E028E230E0F90120812068FC01208318
:101B80000000DF91CF910895CF93DF93CDB7DEB7FB
:101B900080914B018F5F80934B0180E00E94240C69
:101BA000882F90E0DF91CF910895CF93DF931F921C
:101BB000CDB7DEB78983698182E10E949C0C82E106
:101BC0000E94240C0F90DF91CF910895CF93DF9363
:101BD000CDB7DEB785E290E025E230E0F901208163
:101BE0002E7FFC0120830000DF91CF910895CF93D9
:101BF000DF93CDB7DEB785E290E025E230E0F90172
:101C000020812160FC0120830000DF91CF910895A5
:101C1000CF93DF93CDB7DEB781E390E021E330E0EF
:101C2000F90120812E7FFC0120830000DF91CF91FC
:101C30000895CF93DF93CDB7DEB781E390E021E342
:101C400030E0F90120812160FC0120830000DF9158
:101C5000CF910895092E0394000C11F4882352F0BB
:101C6000BB0F40F4BF2B11F460FF04C06F5F7F4FC8
:101C70008F4F9F4F0895DB018F939F930E948E0E8D
:101C8000BF91AF91A29F800D911DA39F900DB29F18
:101C9000900D11240895A29FB001B39FC001A39F8E
:101CA000700D811D1124911DB29F700D811D112495
:101CB000911D0895689401C0E8948F929F92CF93EC
:101CC000DF930E94BF09DF91CF919F908F9008957D
:101CD000262FF999FECF1FBA92BD81BD20BD0FB648
:101CE000F894FA9AF99A0FBE01960895CF93DF936C
:101CF000CDB7DEB760E881E00E949C0C0000DF9168
:101D0000CF910895CF93DF93CDB7DEB761E881E03F
:101D10000E949C0C0000DF91CF9108950E944B0E11
:101D2000A59F900DB49F900DA49F800D911D11242F
:101D30000895CB01F999FECF92BD81BDF89A9927FC
:101D400080B50895E894BB2766277727CB0197F9DC
:101D5000089500240A941616170618060906089511
:101D600000240A9412161306140605060895DC01D1
:101D700001C06D9341505040E0F7089597F99F6777
:101D800080E870E060E00895EE0FFF1F0590F49189
:101D9000E02D09940E94BD0B08F481E008950E9493
:101DA000BD0B08F48FEF08950E94D9070C942A0EFA
:101DB0009FEF80EC08950C940000015F020304057E
:00000001FF
