:020000040800F2
:1000000000000120AD0B0008B3050008B905000889
:10001000BF050008C5050008CB050008000000006A
:10002000000000000000000000000000D1050008F2
:10003000DD05000800000000E9050008F5050008DE
:10004000FD0B0008FD0B0008FD0B0008FD0B000870
:10005000FD0B0008FD0B0008FD0B0008FD0B000860
:10006000FD0B0008FD0B0008FD0B0008FD0B000850
:10007000FD0B0008FD0B0008FD0B0008FD0B000840
:10008000FD0B0008FD0B0008FD0B0008FD0B000830
:1000900000000000FD0B0008FD0B0008FD0B000830
:1000A000FD0B0008FD0B0008FD0B0008FD0B000810
:1000B000FD0B0008FD0B0008FD0B0008FD0B000800
:1000C000FD0B0008FD0B0008FD0B0008FD0B0008F0
:1000D000FD0B0008FD0B0008FD0B0008FD0B0008E0
:1000E000FD0B0008FD0B0008FD0B0008FD0B0008D0
:1000F000FD0B00080000000000000000FD0B0008E0
:10010000FD0B0008FD0B0008FD0B0008FD0B0008AF
:10011000FD0B0008FD0B0008FD0B0008FD0B00089F
:10012000FD0B0008FD0B0008FD0B0008FD0B00088F
:08013000FD0B0008FD0B0008A7
:1001380010B5054C237833B9044B13B10448AFF319
:1001480000800123237010BD700000200000000013
:100158005485000808B5034B1BB103490348AFF3A6
:10016800008008BD000000007400002054850008CD
:1001780053B94AB9002908BF00281CBF4FF0FF3106
:100188004FF0FF3000F06CB9ADF1080C6DE904CE0A
:1001980000F006F8DDF804E0DDE9022304B070475A
:1001A8002DE9F047089E0D4604468E46002B40F088
:1001B80082808A42174646D9B2FA82F24AB1C2F11F
:1001C800200105FA02F320FA01F1974041EA030EF3
:1001D80094404FEA1748230CBEFBF8FCB9B208FB61
:1001E8001CEE43EA0E430CFB01F098420AD9FB18B7
:1001F8000CF1FF3580F01681984240F21381ACF182
:10020800020C3B441B1AA4B2B3FBF8F008FB1033F2
:1002180044EA034400FB01F1A14209D93C1900F169
:10022800FF3380F00181A14240F2FE8002383C4455
:10023800641A40EA0C4000211EB1D4400023C6E9EC
:100248000043BDE8F08702B9FFDEB2FA82F2002A65
:100258004FD1CB1B4FEA174E1FFA87F80121B3FB8A
:10026800FEFC250C0EFB1C3345EA034508FB0CF38A
:10027800AB4207D97D190CF1FF3002D2AB4200F234
:10028800E7808446ED1AA3B2B5FBFEF00EFB1055CD
:1002980043EA054408FB00F8A04507D93C1900F1DA
:1002A800FF3302D2A04500F2D7801846A4EB080419
:1002B80040EA0C40C0E78B4208D9002E00F0AF801E
:1002C8000021C6E900050846BDE8F087B3FA83F1C6
:1002D80000294BD1AB4202D3824200F2B780841A84
:1002E80065EB030301209E46002EAAD0C6E9004E06
:1002F800A7E7C2F1200C01FA02F3974020FA0CF0AC
:100308004FEA174E21FA0CFC1843BCFBFEF1050C12
:100318000EFB11CC1FFA87F845EA0C4501FB08F3E0
:10032800AB4204FA02F409D97D1901F1FF3C80F0CF
:100338008B80AB4240F2888002393D44EB1A85B28B
:10034800B3FBFEF00EFB103345EA034500FB08F350
:10035800AB4207D97D1900F1FF3C71D2AB426FD98E
:1003680002383D44EB1A40EA014178E7C1F1200C1C
:100378008B4022FA0CF71F4320FA0CF405FA01F31C
:100388004FEA174E25FA0CF51C43230CB5FBFEF972
:100398001FFA87F80EFB195543EA054509FB08FAC9
:1003A800AA4502FA01F200FA01F308D97D1909F108
:1003B800FF3047D2AA4545D9A9F102093D44A5EB2A
:1003C8000A05A4B2B5FBFEF00EFB105544EA05443D
:1003D80000FB08F8A04507D93C1900F1FF352DD2DC
:1003E800A0452BD902383C4440EA0940A4EB080454
:1003F800A0FB02894C45C6464D4619D316D05EB1BE
:10040800B3EB0E0264EB050404FA0CFCCA404CEA98
:100418000202CC40C6E900240021BDE8F08731463D
:1004280030460EE7AC46EDE6184601E74345E6D20E
:10043800B8EB020E69EB07050138E0E72846D3E779
:1004480060468FE78146BAE7614677E708464BE79B
:10045800ACF1020C3D4415E702383C4426E700BFE6
:10046800704700BF80B485B000AF78604FF0B043EC
:10047800DA6C4FF0B0417B681343CB644FF0B04364
:10048800DA6C7B681340FB60FB6800BF1437BD461D
:1004980080BC704780B500AF0220FFF7E3FF012062
:1004A800FFF7E0FF00BF80BD80B582B000AF00F06D
:1004B800A3FB00F01DF800F0B7F8FFF7EBFF00F022
:1004C8004FFA06F048FB00F097FA074B7B6064236D
:1004D80005227968054802F0E8FD4FF4FA7000F04B
:1004E800CDF806F041FBF0E76C8500086C020020AF
:1004F80080B59AB000AF07F12003482200211846C2
:1005080007F072FB07F1080300221A605A609A602C
:10051800DA601A615A611E4B1B6823F4C0631C4AD7
:1005280043F4806313601A4B1B6803F4C0637B6059
:100538007B6820233B6201233B6400237B646023A8
:10054800BB640023FB6407F12003184601F0ACF8F4
:100558000346002B01D000F01DF84F23BB60002399
:10056800FB6000233B6100237B610023BB61002308
:10057800FB6107F108030021184601F02FFC034630
:10058800002B01D000F006F800BF6837BD4680BDDB
:100598000004005880B400AF72B600BFFEE780B414
:1005A80000AF00BFBD4680BC704780B400AFFEE717
:1005B80080B400AFFEE780B400AFFEE780B400AFC0
:1005C800FEE780B400AFFEE780B400AF00BFBD46D1
:1005D80080BC704780B400AF00BFBD4680BC704788
:1005E80080B400AF00BFBD4680BC704780B500AF87
:1005F80000F05CFB00BF80BD80B485B000AF7860C0
:100608004FF0B0435A6E4FF0B0417B6813434B66CE
:100618004FF0B0435A6E7B681340FB60FB6800BF25
:100628001437BD4680BC704780B500AF064B10221A
:100638001A60054802F02CF90346002B01D0FFF799
:10064800A9FF00BF80BD00BFD001002080B582B0E7
:1006580000AF78600120FFF7CFFF00BF0837BD4625
:1006680080BD80B400AF00BFBD4680BC704780B578
:1006780000AF00F0F6F80346184680BD80B582B09A
:1006880000AF78607B68184600F019F900BF08379A
:10069800BD4680BD80B586B000AFF860B9607A60AD
:1006A80000237B610AE0AFF300800146BB685A1C57
:1006B800BA60CAB21A707B6901337B617A697B6858
:1006C8009A42F0DB7B6818461837BD4680BD80B576
:1006D80086B000AFF860B9607A6000237B6109E0FA
:1006E800BB685A1CBA601B781846AFF300807B6958
:1006F80001337B617A697B689A42F1DB7B68184633
:100708001837BD4680BD80B483B000AF78604FF025
:10071800FF3318460C37BD4680BC704780B483B0A1
:1007280000AF786039603B684FF400525A6000238C
:1007380018460C37BD4680BC704780B483B000AF04
:100748007860012318460C37BD4680BC704780B4DA
:1007580085B000AFF860B9607A6000231846143796
:10076800BD4680BC7047000080B586B000AF786099
:10077800144A154BD31A7B617B693B61134B1B6889
:10078800002B02D1114B124A1A60104B1A687B6871
:1007980013443A699A4207D207F0FCF903460C223F
:1007A8001A604FF0FF3309E0084B1B68FB60074BEA
:1007B8001A687B681344054A1360FB6818461837A3
:1007C800BD4680BD00000120000400008C00002010
:1007D8009803002080B400AF00BFBD4680BC7047BE
:1007E80080B483B000AF0023FB71FB7918460C3747
:1007F800BD4680BC704780B485B000AF78600023E8
:10080800FB73FB7B18461437BD4680BC704780B429
:1008180083B000AF0023FB71FB7918460C37BD4647
:1008280080BC704780B400AF024B1B681846BD46B9
:1008380080BC70479000002080B400AF024B1B685A
:100848001846BD4680BC70479000002080B483B035
:1008580000AF00237B607B6818460C37BD4680BC20
:10086800704780B483B000AF00237B607B68184674
:100878000C37BD4680BC704780B483B000AF0023FE
:100888007B607B6818460C37BD4680BC704780B4D7
:1008980085B000AF78600023FB60FB68184614370A
:1008A800BD4680BC704780B485B000AF7860002337
:1008B800FB60FB6818461437BD4680BC704780B49F
:1008C80083B000AF786000BF0C37BD4680BC70476E
:1008D80080B485B000AF78604FF0B043DA6C4FF069
:1008E800B0417B681343CB644FF0B043DA6C7B684C
:1008F8001340FB60FB6800BF1437BD4680BC7047DF
:1009080080B485B000AF78604FF0B0439A6D4FF077
:10091800B0417B6813438B654FF0B0439A6D7B6899
:100928001340FB60FB6800BF1437BD4680BC7047AE
:1009380080B485B000AF78604FF0B0431A6E4FF0C6
:10094800B0417B6813430B664FF0B0431A6E7B6867
:100958001340FB60FB6800BF1437BD4680BC70477E
:1009680080B500AF224B234A1A60214B4FF4E13285
:100978005A601F4B00229A601D4B0022DA601C4B04
:1009880000221A611A4B0C225A61194B00229A61F3
:10099800174B0022DA61164B00221A62144B002210
:1009A8005A62134B00229A62114802F02EFB03464A
:1009B800002B01D0FFF7EEFD00210D4803F048F8A9
:1009C8000346002B01D0FFF7E5FD0021084803F09E
:1009D8007DF80346002B01D0FFF7DCFD044802F048
:1009E800FFFF0346002B01D0FFF7D4FD00BF80BDF9
:1009F800DC0100200038014080B500AF224B234ABB
:100A08001A60214B4FF4E1325A601F4B00229A6062
:100A18001D4B0022DA601C4B00221A611A4B0C2273
:100A28005A61194B00229A61174B0022DA61164B62
:100A380000221A62144B00225A62134B00229A6257
:100A4800114802F0E2FA0346002B01D0FFF7A2FD9D
:100A580000210D4802F0FCFF0346002B01D0FFF7F0
:100A680099FD0021084803F031F80346002B01D016
:100A7800FFF790FD044802F0B3FF0346002B01D0B6
:100A8800FFF788FD00BF80BD6C02002000440040D5
:100A980080B596B000AF786007F1440300221A6071
:100AA8005A609A60DA601A6107F10C033822002153
:100AB800184607F099F87B681B682D4A934226D19F
:100AC8000123FB604FF440333B6107F10C031846E8
:100AD80001F02AFD0346002B01D0FFF75BFD4FF420
:100AE8008040FFF725FF0220FFF7F2FEC0237B645A
:100AF8000223BB640023FB6400233B6507237B655B
:100B080007F1440319461B4800F0C4F92BE07B6841
:100B18001B68194A934226D10223FB604FF44023F5
:100B28007B6107F10C03184601F0FEFC0346002B1D
:100B380001D0FFF72FFD4FF40030FFF7E1FE012051
:100B4800FFF7C6FE0C237B640223BB640023FB640F
:100B580000233B6507237B6507F1440319464FF0E3
:100B6800904000F097F900BF5837BD4680BD00BFE0
:100B780000380140000400480044004080B582B0BD
:100B880000AF78600B46FB70FB789AB264237968F3
:100B9800034802F08AFA00BF0837BD4680BD00BF8F
:100BA800DC0100200D488546FFF714FE0C480D496E
:100BB8000D4A002302E0D458C4500433C4188C42B0
:100BC800F9D30A4A0A4C002301E013600432A24216
:100BD800FBD306F0E5FFFFF767FCFEE70000012006
:100BE80000000020700000206488000870000020C9
:100BF80098030020FEE7000080B582B000AF002314
:100C0800FB71032000F014F901F0ACFA0346094A1D
:100C180013600F2000F010F80346002B02D00123C8
:100C2800FB7101E0FFF7BBFCFB7918460837BD46AE
:100C380080BD00BF0000002080B584B000AF7860A0
:100C48000023FB73174B1B78002B24D001F08AFA82
:100C58000246144B1B7819464FF47A73B3FBF1F331
:100C6800B2FBF3F3184600F008F90346002B0FD146
:100C78007B680F2B09D8002279684FF0FF3000F00D
:100C8800E2F8094A7B68136007E00123FB7304E07C
:100C98000123FB7301E00123FB73FB7B184610372C
:100CA800BD4680BD080000200400002080B400AFCD
:100CB800054B1B781A46054B1B681344034A1360FF
:100CC80000BFBD4680BC704708000020FC02002021
:100CD80080B485B000AF78607B6803F00703FB60E1
:100CE8000C4BDB68BB60BA684FF6FF031340BB6070
:100CF800FB681A02BB68134343F0BF6343F4003335
:100D0800BB60044ABB68D36000BF1437BD4680BCD3
:100D1800704700BF00ED00E080B400AF044BDB6813
:100D28001B0A03F007031846BD4680BC704700BF86
:100D380000ED00E080B483B000AF03463960FB717A
:100D480097F90730002B0ADB3B68DAB20C4997F9B0
:100D580007301201D2B20B4483F800230AE03B6843
:100D6800DAB20849FB7903F00F03043B1201D2B24F
:100D78000B441A7600BF0C37BD4680BC704700BFD5
:100D880000E100E000ED00E080B489B000AFF86059
:100D9800B9607A60FB6803F00703FB61FB69C3F184
:100DA8000703042B28BF0423BB61FB690433062B0C
:100DB80002D9FB69033B00E000237B614FF0FF325F
:100DC800BB6902FA03F3DA43BB681A407B699A40AD
:100DD8004FF0FF317B6901FA03F3D9437B680B407D
:100DE800134318462437BD4680BC704780B582B08F
:100DF80000AF78607B68013BB3F1807F01D30123AA
:100E08000FE00A4A7B68013B53600F214FF0FF3027
:100E1800FFF790FF054B00229A60044B07221A60E7
:100E2800002318460837BD4680BD00BF10E000E02B
:100E380080B582B000AF78607868FFF749FF00BFDF
:100E48000837BD4680BD80B586B000AF0346B9609F
:100E58007A60FB73FFF760FF78617A68B968786930
:100E6800FFF792FF024697F90F3011461846FFF731
:100E780061FF00BF1837BD4680BD80B582B000AFA6
:100E880078607868FFF7B2FF034618460837BD4612
:100E980080BD000080B487B000AF7860396000235F
:100EA8007B6140E13B681A6801217B6901FA03F321
:100EB8001340FB60FB68002B00F032813B685B68E5
:100EC80003F00303012B05D03B685B6803F00303C1
:100ED800022B30D17B689B683B617B695B000322F6
:100EE80002FA03F3DB433A6913403B613B68DA6873
:100EF8007B695B0002FA03F33A6913433B617B6841
:100F08003A699A607B685B683B6101227B6902FAF7
:100F180003F3DB433A6913403B613B685B681B0999
:100F280003F001027B6902FA03F33A6913433B6158
:100F38007B683A695A603B685B6803F00303032BDC
:100F480017D07B68DB683B617B695B00032202FA90
:100F580003F3DB433A6913403B613B689A687B695A
:100F68005B0002FA03F33A6913433B617B683A6911
:100F7800DA603B685B6803F00303022B23D17B69CB
:100F8800DA087B68083253F822303B617B6903F04A
:100F980007039B000F2202FA03F3DB433A6913406D
:100FA8003B613B681A697B6903F007039B0002FAFF
:100FB80003F33A6913433B617B69DA087B680832BB
:100FC800396943F822107B681B683B617B695B00C9
:100FD800032202FA03F3DB433A6913403B613B689F
:100FE8005B6803F003027B695B0002FA03F33A696A
:100FF80013433B617B683A691A603B685B6803F49A
:101008004033002B00F08C804E4A7B699B080233EA
:1010180052F823303B617B6903F003039B000722EE
:1010280002FA03F3DB433A6913403B617B68B3F18F
:10103800904F0DD07B68444A934207D07B68434A5F
:10104800934201D1022304E0072302E0012300E0D8
:1010580000237A6902F00302920093403A6913432D
:101068003B6138497B699B0802333A6941F8232080
:10107800374BD3F880303B61FB68DB433A69134058
:101088003B613B685B6803F48033002B03D03A690B
:10109800FB6813433B612E4A3B69C2F880302C4BF6
:1010A800D3F884303B61FB68DB433A6913403B610A
:1010B8003B685B6803F40033002B03D03A69FB6894
:1010C80013433B61224A3B69C2F88430204B1B68BA
:1010D8003B61FB68DB433A6913403B613B685B68F3
:1010E80003F48013002B03D03A69FB6813433B6178
:1010F800174A3B691360164B5B683B61FB68DB432F
:101108003A6913403B613B685B6803F40013002BAA
:1011180003D03A69FB6813433B610D4A3B6953604E
:101128007B6901337B613B681A687B6922FA03F3A8
:10113800002B7FF4B7AE00BF00BF1C37BD4680BC94
:10114800704700BF00000140000400480008004844
:101158000008005880B400AF044B1B68034A43F4EE
:101168008073136000BFBD4680BC70470004005800
:1011780080B400AF034B1B6803F4C0631846BD4638
:1011880080BC70470004005880B400AF064B1B6851
:1011980003F48073B3F5807F01D1012300E00023BD
:1011A8001846BD4680BC70470004005880B400AFA4
:1011B8004FF0B0431B684FF0B04243F40013136084
:1011C80000BFBD4680BC704780B400AF4FF0B0434D
:1011D8001B684FF0B04223F40013136000BFBD46F4
:1011E80080BC704780B400AF4FF0B0431B6803F475
:1011F8008013B3F5801F01D1012300E000231846B6
:10120800BD4680BC704780B400AF4FF0B0431B6848
:101218004FF0B04243F48033136000BFBD4680BC3A
:10122800704780B400AF4FF0B0431B684FF0B04236
:1012380023F48033136000BFBD4680BC704780B480
:1012480000AF4FF0B0431B6803F40033B3F5003F21
:1012580001D1012300E000231846BD4680BC704739
:1012680080B400AF4FF0B0431B684FF0B04243F476
:101278008073136000BFBD4680BC704780B400AF68
:101288004FF0B0431B684FF0B04223F480731360F3
:1012980000BFBD4680BC704780B400AF4FF0B0437C
:1012A8001B6803F48063B3F5806F01D1012300E06C
:1012B80000231846BD4680BC704780B483B000AF99
:1012C80078604FF0B0435B6823F0FE427B681B06F2
:1012D8004FF0B04113434B6000BF0C37BD4680BC94
:1012E800704780B400AF4FF0B043D3F8903003F0AC
:1012F8000203022B01D1012300E000231846BD465A
:1013080080BC704780B400AF4FF0B043D3F894303E
:101318004FF0B04243F00103C2F8943000BFBD461D
:1013280080BC704780B400AF4FF0B043D3F894301E
:101338004FF0B04223F00103C2F8943000BFBD461D
:1013480080BC704780B400AF4FF0B043D3F89430FE
:1013580003F00203022B01D1012300E00023184609
:10136800BD4680BC704780B400AF4FF0B0431B68E7
:101378004FF0B04243F00103136000BFBD4680BC8C
:10138800704780B400AF4FF0B0431B684FF0B042D5
:1013980023F00103136000BFBD4680BC704780B4D2
:1013A80000AF4FF0B0431B6803F00203022B01D1DA
:1013B800012300E000231846BD4680BC704780B476
:1013C80000AF4FF0B0431B6803F00803082B01D1AE
:1013D800012300E000231846BD4680BC704780B456
:1013E80000AF4FF0B0431B6803F0F0031846BD464A
:1013F80080BC704780B400AF4FF0B043D3F894304E
:1014080003F470631846BD4680BC704780B483B04F
:1014180000AF78604FF0B0435B6823F47F427B688D
:101428001B024FF0B04113434B6000BF0C37BD4661
:1014380080BC704780B483B000AF78604FF0B04391
:101448009B6823F003024FF0B0417B6813438B6025
:1014580000BF0C37BD4680BC704780B400AF4FF06A
:10146800B0439B6803F00C031846BD4680BC704728
:1014780080B483B000AF78604FF0B0439B6823F02E
:10148800F0024FF0B0417B6813438B6000BF0C370C
:10149800BD4680BC704780B483B000AF78604FF021
:1014A800B043D3F8083123F00F027B681B094FF0D3
:1014B800B0411343C1F8083100BF0C37BD4680BCAA
:1014C800704780B483B000AF78604FF0B0439B683A
:1014D80023F4E0624FF0B0417B6813438B6000BF98
:1014E8000C37BD4680BC704780B483B000AF7860CD
:1014F8004FF0B0439B6823F460524FF0B0417B68D3
:1015080013438B6000BF0C37BD4680BC704780B466
:1015180000AF4FF0B0439B6803F0F0031846BD4698
:1015280080BC704780B400AF4FF0B043D3F80831A7
:101538001B0103F0F0031846BD4680BC704780B419
:1015480000AF4FF0B0439B6803F4E0631846BD4614
:1015580080BC704780B400AF4FF0B0439B6803F481
:1015680060531846BD4680BC704780B400AF4FF04A
:10157800B0431B684FF0B04243F08073136000BF64
:10158800BD4680BC704780B400AF4FF0B0431B68C5
:101598004FF0B04223F08073136000BFBD4680BC9B
:1015A800704780B400AF4FF0B0431B6803F000737E
:1015B800B3F1007F01D1012300E000231846BD46A6
:1015C80080BC704780B400AF4FF0B043DB681B0AA3
:1015D80003F07F031846BD4680BC704780B400AF57
:1015E8004FF0B043DB6803F060431846BD4680BC4B
:1015F800704780B400AF4FF0B043DB6803F070036E
:101608001846BD4680BC704780B400AF4FF0B04369
:10161800DB6803F003031846BD4680BC704780B4FE
:1016280000AF4FF0B0439B6803F48033B3F5803FBD
:1016380001D1012300E000231846BD4680BC704755
:1016480080B400AF4FF0B043D3F8083103F48033CF
:10165800B3F5803F01D1012300E000231846BD46C1
:1016680080BC704780B400AF4FF0B0439B6803F470
:101678000033B3F5003F01D1012300E000231846F1
:10168800BD4680BC704780B400AF4FF0B0439B6844
:1016980003F48023B3F5802F01D1012300E0002358
:1016A8001846BD4680BC704780B588B000AF7860EA
:1016B8007B68002B01D101238AE3FFF7CEFEF86196
:1016C800FFF7A2FFB8617B681B6803F02003002BBB
:1016D80000F0C980FB69002B05D0FB690C2B7BD17E
:1016E800BB69012B78D1FFF75AFE0346002B05D0C2
:1016F8007B681B6A002B01D1012369E37B689A6A26
:101708004FF0B0431B6803F00803002B05D04FF0DF
:10171800B0431B6803F0F00306E04FF0B043D3F882
:1017280094301B0903F0F003934222D27B689B6A32
:10173800184600F04FFD0346002B01D0012347E374
:101748004FF0B0431B684FF0B04243F008031360FA
:101758004FF0B0431B6823F0F0027B689B6A4FF0A0
:10176800B04113430B607B685B6A1846FFF74EFE77
:1017780021E04FF0B0431B684FF0B04243F008033C
:1017880013604FF0B0431B6823F0F0027B689B6A3C
:101798004FF0B04113430B607B685B6A1846FFF754
:1017A80035FE7B689B6A184600F014FD0346002B43
:1017B80001D001230CE300F0D5FC0346B44A1360C2
:1017C800B44B1B681846FFF737FA0346FB74FB7CDB
:1017D800002B47D0FB7CFBE27B681B6A002B2CD0DC
:1017E800FFF7C1FDFEF743FF786108E0FEF73FFF12
:1017F80002467B69D31A022B01D90323E8E2FFF7DB
:10180800CEFD0346002BF1D04FF0B0431B684FF0DC
:10181800B04243F0080313604FF0B0431B6823F055
:10182800F0027B689B6A4FF0B04113430B607B6802
:101838005B6A1846FFF7EAFD15E0FFF7A2FDFEF721
:1018480016FF786108E0FEF712FF02467B69D31A9B
:10185800022B01D90323BBE2FFF7A1FD0346002BAE
:10186800F1D100E000BF7B681B6803F00103002B87
:101878005FD0FB69082B05D0FB690C2B0DD1BB6928
:10188800032B0AD1FFF7DBFC0346002B50D07B6803
:101898005B68002B4CD101239AE24FF0B0431B68E0
:1018A80023F480127B689B684FF0B04113430B60B0
:1018B8007B685B68B3F5803F02D1FFF7A4FC0DE0BD
:1018C8007B685B68B3F5041F04D1FFF76FFCFFF773
:1018D8009AFC03E0FFF7A5FCFFF776FC7B685B68E2
:1018E800002B12D0FEF7C3FE786108E0FEF7BFFEBA
:1018F80002467B69D31A642B01D9032368E2FFF7F8
:101908009EFC0346002BF1D013E0FEF7B0FE786191
:1019180008E0FEF7ACFE02467B69D31A642B01D9B6
:10192800032355E2FFF78BFC0346002BF1D100E0BF
:1019380000BF7B681B6803F00203002B4BD0FB69D8
:10194800042B05D0FB690C2B13D1BB69022B10D1DA
:10195800FFF7A2FC0346002B05D07B681B69002B10
:1019680001D1012334E27B685B691846FFF7A5FCC7
:1019780031E07B681B69002B19D0FFF771FCFEF77B
:1019880076FE786108E0FEF772FE02467B69D31A9C
:10199800022B01D903231BE2FFF77EFC0346002B31
:1019A800F1D07B685B691846FFF787FC13E0FFF707
:1019B80065FCFEF75CFE786108E0FEF758FE02461B
:1019C8007B69D31A022B01D9032301E2FFF764FCD8
:1019D8000346002BF1D17B681B6803F00803002B3A
:1019E8006ED07B689B69002B56D04FF0B043D3F87C
:1019F8009430FB607B68DA69FB6803F010039A4255
:101A080031D0FB6803F00203002B06D0FB6803F01B
:101A18000103002B01D10123DAE1FB6803F0010384
:101A2800002B13D0FFF77EFCFEF721FE786108E05B
:101A3800FEF71DFE02467B69D31A112B01D9032339
:101A4800C6E1FFF77FFC0346002BF1D14FF0B0430E
:101A5800D3F8943023F010027B68DB694FF0B04173
:101A68001343C1F89430FFF74DFCFEF700FE786190
:101A780008E0FEF7FCFD02467B69D31A112B01D959
:101A88000323A5E1FFF75EFC0346002BF1D017E026
:101A98000000002004000020FFF744FCFEF7E7FDEB
:101AA800786108E0FEF7E3FD02467B69D31A112B43
:101AB80001D903238CE1FFF745FC0346002BF1D144
:101AC8007B681B6803F00403002B00F0D880FFF745
:101AD8005BFB0346002B13D1FFF73CFBFEF7C7FD6A
:101AE800786108E0FEF7C3FD02467B69D31A022B32
:101AF80001D903236CE1FFF747FB0346002BF1D024
:101B08007B68DB68002B7BD07B68DB68852B03D088
:101B18007B68DB68052B09D14FF0B043D3F89030D0
:101B28004FF0B04243F00403C2F89030FEF79FFD37
:101B380078614FF0B043D3F890304FF0B04243F0A3
:101B48000103C2F890300AE0FEF791FD02467B6976
:101B5800D31A41F28832934201D9032338E1FFF7BF
:101B6800C0FB0346002BEFD07B68DB68812B03D0DA
:101B78007B68DB68852B21D1FEF779FD78614FF012
:101B8800B043D3F890304FF0B04243F08003C2F82E
:101B980090300AE0FEF76BFD02467B69D31A41F2EA
:101BA8008832934201D9032312E14FF0B043D3F8AE
:101BB800903003F40063002BECD060E0FEF757FD93
:101BC80078614FF0B043D3F890304FF0B04223F033
:101BD8008003C2F890300AE0FEF749FD02467B69AF
:101BE800D31A41F28832934201D90323F0E04FF02F
:101BF800B043D3F8903003F40063002BECD13EE0FF
:101C0800FEF735FD78614FF0B043D3F890304FF0D0
:101C1800B04223F08003C2F890300AE0FEF727FDB7
:101C280002467B69D31A41F28832934201D90323D1
:101C3800CEE04FF0B043D3F8903003F40063002BAC
:101C4800ECD1FEF714FD78614FF0B043D3F8903033
:101C58004FF0B04223F00103C2F890300AE0FEF7DB
:101C680006FD02467B69D31A41F28832934201D9B4
:101C78000323ADE0FFF735FB0346002BEFD17B686C
:101C8800DB6A002B00F0A380FB690C2B76D07B6805
:101C9800DB6A022B4BD1FFF776FCFEF7E8FC786194
:101CA80008E0FEF7E4FC02467B69D31A0A2B01D947
:101CB80003238DE0FFF775FC0346002BF1D14FF0AD
:101CC800B043DA68444B13407A68116B7A68526BF8
:101CD80011437A68926B120211437A68D26B1143EE
:101CE8007A68126C11437A68526C0A434FF0B0411B
:101CF8001343CB60FFF739FC4FF0B043DB684FF07C
:101D0800B04243F08053D360FEF7B1FC786108E03D
:101D1800FEF7ADFC02467B69D31A0A2B01D90323CF
:101D280056E0FFF73EFC0346002BF1D04FE0FFF7EB
:101D38002AFC4FF0B043DB684FF0B04223F00303B6
:101D4800D3604FF0B043DB684FF0B04223F08853C4
:101D580023F48033D360FEF78AFC786108E0FEF74D
:101D680086FC02467B69D31A0A2B01D903232FE08C
:101D7800FFF717FC0346002BF1D128E07B68DB6AEC
:101D8800012B01D1012323E04FF0B043DB68BB6195
:101D9800BB6903F003027B681B6B9A4215D1BB69D0
:101DA80003F070027B685B6B9A420ED1BB6903F447
:101DB800FE427B689B6B1B029A4206D1BB6903F00B
:101DC80060427B685B6C9A4201D0012300E00023EB
:101DD80018462037BD4680BD8C80C11180B584B0BF
:101DE80000AF786039607B68002B01D101230FE1D7
:101DF800894B1B6803F007033A689A421BD9864B44
:101E08001B6823F0070284493B6813430B60FEF705
:101E18002EFCF86008E0FEF72AFC0246FB68D31A9D
:101E2800022B01D90323F3E07B4B1B6803F0070364
:101E38003A689A42EFD17B681B6803F00203002BD3
:101E480016D07B689B681846FFF712FBFEF70FFC5D
:101E5800F86008E0FEF70BFC0246FB68D31A022B79
:101E680001D90323D4E0FFF7DAFB0346002BF1D0B6
:101E78007B681B6803F04003002B16D07B685B6906
:101E88001846FFF708FBFEF7F2FBF86008E0FEF7DC
:101E9800EEFB0246FB68D31A022B01D90323B7E0F5
:101EA800FFF7CEFB0346002BF1D07B681B6803F0DD
:101EB8000403002B16D07B68DB681846FFF701FB8C
:101EC800FEF7D5FBF86008E0FEF7D1FB0246FB6899
:101ED800D31A022B01D903239AE0FFF7C3FB034669
:101EE800002BF1D07B681B6803F00803002B17D088
:101EF8007B681B69DB001846FFF7F6FAFEF7B7FBAD
:101F0800F86008E0FEF7B3FB0246FB68D31A022B21
:101F180001D903237CE0FFF7B6FB0346002BF1D081
:101F28007B681B6803F00103002B43D07B685B6868
:101F3800022B06D1FFF783F90346002B1ED101239C
:101F480066E07B685B68032B06D1FFF72AFB034634
:101F5800002B13D101235BE07B685B68002B06D163
:101F6800FFF71DFA0346002B08D1012350E0FFF7C5
:101F780093F90346002B01D1012349E07B685B6894
:101F88001846FFF757FAFEF772FBF8600AE0FEF70B
:101F98006EFB0246FB68D31A41F28832934201D99C
:101FA800032335E0FFF759FA02467B685B689B001C
:101FB8009A42ECD1184B1B6803F007033A689A421F
:101FC8001BD2154B1B6823F0070213493B681343C8
:101FD8000B60FEF74CFBF86008E0FEF748FB024692
:101FE800FB68D31A022B01D9032311E00A4B1B68A3
:101FF80003F007033A689A42EFD100F0B3F80346BA
:10200800064A1360064B1B681846FEF715FE034682
:1020180018461037BD4680BD00400058000000201B
:102028000400002090B587B000AF00237B61002337
:102038003B61FFF712FAB860FFF7E6FA7860BB6811
:10204800002B05D0BB680C2B39D17B68012B36D10E
:10205800FFF7B5F90346002B15D1FFF7B0F9034692
:10206800012B06D1FFF7BBF903461B0A03F00F0348
:1020780005E0FFF7BFF903461B0A03F00F03364AD2
:1020880052F8233014E0FFF79AF90346012B06D1E2
:10209800FFF7A5F903461B0903F00F0305E0FFF757
:1020A800A9F903461B0903F00F032B4A52F8233002
:1020B8003B61BB68002B15D13B697B6112E0BB68B3
:1020C800042B02D1254B7B610CE0BB68082B09D19E
:1020D800FFF788F80346012B02D1204B7B6101E012
:1020E8001F4B7B61FFF7B9F903460C2B2FD1FFF784
:1020F8008BFA78607B68022B03D07B68032B03D0B4
:102108000DE0164BFB600DE0FFF76CF80346012B62
:1021180002D1124BFB6005E0114BFB6002E03B690A
:10212800FB6000BFFFF74EFA0246FB6803FB02F4B0
:10213800FFF75FFA03461B090133B4FBF3F4FFF71B
:102148004DFA03465B0F0133B4FBF3F37B617B6904
:1021580018461C37BD4690BD248600080024F400AC
:102168000048E80198B500AFFFF75CFF0446FFF7A9
:10217800CEF903461B0903F00F03034A52F8233034
:10218800B4FBF3F3184698BDC485000898B500AFB2
:10219800FFF7E8FF0446FFF7D2F903461B0A034A94
:1021A80052F8233024FA03F3184698BD0486000831
:1021B80098B500AFFFF7D6FF0446FFF7CBF9034603
:1021C800DB0A034A52F8233024FA03F3184698BD71
:1021D8000486000890B585B000AF78607B681B095D
:1021E80003F00F03104A52F82330FB60FFF79AF907
:1021F80003461B0903F00F030C4A52F82330FA6810
:10220800B2FBF3F3BB60BB68094AA2FB03239C0C37
:10221800FEF7AEFF03461946204600F00BF80346CA
:1022280018461437BD4690BD24860008C4850008AA
:1022380083DE1B4380B58EB000AF786039603C4ABE
:1022480007F1200392E80300186004331980394A23
:1022580007F1180392E80300186004331980364A1E
:1022680007F10C0307CA83E8070000237B633B6878
:10227800B3F5007F1DD100233B6316E03B6B5B0089
:1022880007F13802134433F8183C1A467B68934226
:1022980008D83B6B9B0007F13802134453F82C3CD9
:1022A8007B6323E03B6B01333B633B6B022BE5D93C
:1022B8001CE00023FB6216E0FB6A5B0007F13802B2
:1022C800134433F8203C1A467B68934208D8FB6ACB
:1022D8009B0007F13802134453F82C3C7B6305E05C
:1022E800FB6A0133FB62FB6A022BE5D9134B1B68BF
:1022F80023F0070211497B6B13430B60FEF7B7F914
:10230800B86208E0FEF7B3F90246BB6AD31A022B9B
:1023180001D9032307E0094B1B6803F007037A6B15
:102328009A42EFD1002318463837BD4680BD00BF1A
:10233800748500087C8500088485000800400058E2
:1023480080B400AF4FF0B043D3F8903003F00203ED
:10235800022B01D1012300E000231846BD4680BCB2
:10236800704780B483B000AF78604FF0B043D3F8C3
:1023780088207B681B0CDB431A407B689BB24FF0BC
:10238800B0411343C1F8883000BF0C37BD4680BC4C
:10239800704780B483B000AF78604FF0B043D3F893
:1023A800883023F440724FF0B0417B681343C1F882
:1023B800883000BF0C37BD4680BC704780B483B0FE
:1023C80000AF78604FF0B043D3F8883023F4406210
:1023D8004FF0B0417B681343C1F8883000BF0C3719
:1023E800BD4680BC704780B483B000AF78604FF0C2
:1023F800B043D3F888207B681B0903F47F23DB43B1
:102408001A407B681B0103F47F234FF0B04113434C
:10241800C1F8883000BF0C37BD4680BC704780B417
:1024280083B000AF78604FF0B043D3F888207B6862
:102438001B0C1B04DB431A407B681B044FF0B041A4
:102448001343C1F8883000BF0C37BD4680BC7047C5
:1024580080B483B000AF78604FF0B043D3F88830D1
:1024680023F040424FF0B0417B681343C1F88830F5
:1024780000BF0C37BD4680BC704780B483B000AF46
:1024880078604FF0B043D3F8883023F040524FF0D3
:10249800B0417B681343C1F8883000BF0C37BD4694
:1024A80080BC704780B483B000AF78604FF0B04311
:1024B800D3F8903023F440724FF0B0417B68134357
:1024C800C1F8903000BF0C37BD4680BC704780B45F
:1024D80000AF4FF0B043D3F8903003F44073184680
:1024E800BD4680BC704780B400AF4FF0B043D3F80E
:1024F80090304FF0B04243F48033C2F8903000BFC0
:10250800BD4680BC704780B400AF4FF0B043D3F8ED
:1025180090304FF0B04223F48033C2F8903000BFBF
:10252800BD4680BC7047000080B586B000AF7860BB
:1025380000237B610023FB740023BB747B681B684A
:1025480003F48033002B58D0FEF704FEFEF78FF813
:10255800F86009E0FEF78BF80246FB68D31A022BF5
:1025680002D90323FB7406E07B4B1B6803F48073DA
:10257800B3F5807FEED1FB7C002B3CD1FFF7A7FFA2
:1025880002467B685B6B9A420FD04FF0B043D3F89A
:10259800903023F440737B61FFF7A5FFFFF7B3FF8B
:1025A8004FF0B0427B69C2F890307B6903F00203B8
:1025B800002B14D0FEF75BF8F8600BE0FEF757F835
:1025C8000246FB68D31A41F28832934202D90323A8
:1025D800FB7404E0FFF7B4FE0346012BEED1FB7C4D
:1025E800002B05D17B685B6B1846FFF75BFF04E0A7
:1025F800FB7CBB7401E0FB7CBB747B681B6803F04D
:102608000103002B04D07B685B681846FFF7A9FE1E
:102618007B681B6803F00203002B04D07B689B686F
:102628001846FFF79EFE7B681B6803F02003002B0B
:1026380004D07B681B691846FFF7C0FE7B681B68DF
:1026480003F40073002B04D07B681B6A1846FFF75D
:10265800E6FE7B681B6803F48063002B04D07B686C
:102668005B6A1846FFF7DBFE7B681B6803F40063B0
:10267800002B04D07B689B6A1846FFF7D0FE7B6866
:102688001B6803F04003002B04D07B685B69184685
:10269800FFF7A9FE7B681B6803F08003002B04D0BA
:1026A8007B689B691846FFF79EFE7B681B6803F4EE
:1026B8008073002B04D07B68DB691846FFF793FE14
:1026C8007B681B6803F01003002B11D07B68DB6864
:1026D8001846FFF75EFE7B68DB68B3F5807F07D19D
:1026E8004FF0B043DB684FF0B04243F08073D360E3
:1026F8007B681B6803F40043002B10D07B681B6BBE
:102708001846FFF7A5FE7B681B6B002B07D14FF01F
:10271800B043DB684FF0B04243F08073D3607B680E
:102728001B6803F48043002B11D07B68DB6A1846D2
:10273800FFF7A3FE7B68DB6AB3F1005F07D14FF0B8
:10274800B043DB684FF0B04243F48033D360BB7CC6
:1027580018461837BD4680BD0004005880B483B0C1
:1027680000AF7860064B9B6823F4006204497B68DD
:1027780013438B6000BF0C37BD4680BC704700BF59
:102788000004005880B400AF054BD3F89030044AD9
:1027980043F40043C2F8903000BFBD4680BC704788
:1027A8000004005880B400AF054BD3F89030044AB9
:1027B80023F40043C2F8903000BFBD4680BC704788
:1027C8000004005880B400AF034B4FF400629A61D4
:1027D80000BFBD4680BC70470004005880B400AFFD
:1027E800064B5B6903F00203022B01D1012300E0D1
:1027F80000231846BD4680BC704700BF000400583F
:1028080080B400AF064B5B6903F00403042B01D1CD
:10281800012300E000231846BD4680BC704700BF76
:102828000004005880B400AF4FF0B043D3F89430A0
:102838004FF0B04223F40043C2F8943000BFBD46C5
:1028480080BC704780B400AF4FF0B043D3F89430E9
:1028580003F48043B3F5804F01D1012300E0002346
:102868001846BD4680BC704780B483B000AF78601E
:10287800064BD3F8902005497B681343C1F8903084
:1028880000BF0C37BD4680BC704700BF0008005829
:1028980080B584B000AF78607B68002B03D101233A
:1028A800FB73FB7B4BE00023FB737B689B79DBB2FC
:1028B800002B05D17B6800225A717868FDF7C6FEA7
:1028C8007B6802229A71FFF7ADFF1F4B1A68134607
:1028D800DB009B1A9B00DB0C642202FB03F3BB604A
:1028E800BB68002B05D10123FB737B6801229A602A
:1028F80007E0BB68013BBB60FFF7A4FF0346002B62
:10290800EED1FFF73FFF4FF48050FFF7ADFF4FF4D4
:102918000060FFF723FFFFF755FFFB7B002B0AD171
:102928007B681B68184600F02FFA7B6801221A7131
:102938007B6800229A607B6801229A71FB7B1846AB
:102948001037BD4680BD00BF0000002080B586B0AE
:1029580000AFF8607A601A460B467B8113463B81CC
:10296800FB689B79DBB2012B4AD1FB685B79012BB1
:1029780001D1022345E0FB6801225A71FB6802225B
:102988009A71F86800F0CEFAFFF70CFF0D21F8688D
:1029980000F01AFA7B891B0A9BB2DBB21946F86869
:1029A80000F012FA7B89DBB21946F86800F00CFADD
:1029B8000023BB820AE0BB8A7A6813441B78194655
:1029C800F86800F001FABB8A0133BB82BA8A3B89F6
:1029D8009A42F0D3FFF7D6FEF86800F0C7FAFB6812
:1029E8009B68002B02D00123FB7501E00023FB75D7
:1029F800FB6801229A71FB6800225A71FB7D00E096
:102A0800022318461837BD4680BD80B588B000AF90
:102A1800F8607A601A460B467B8113463B817B68D7
:102A2800BB61FB689B79DBB2012B4AD1FB685B7900
:102A3800012B01D1022345E0FB6801225A71F86895
:102A480000F070FAFFF7AEFE1D21F86800F0BCF93F
:102A58007B891B0A9BB2DBB21946F86800F0B4F90F
:102A68007B89DBB21946F86800F0AEF90021F868F6
:102A780000F0AAF90023FB8209E0B969F86800F0C0
:102A8800F9F9BB690133BB61FB8A0133FB82FA8A1E
:102A98003B899A42F1D3FFF775FEF86800F066FAB1
:102AA800FB689B68002B02D00123FB7701E0002321
:102AB800FB77FB6801229A71FB6800225A71FB7F41
:102AC80000E0022318462037BD4680BD80B586B099
:102AD80000AFF8607A601A460B46FB7213463B81DA
:102AE800FB689B79DBB2012B4AD1FB685B79012B30
:102AF80001D1022345E0FB6801225A71F86800F011
:102B080011FAFB7A842B02D0FB7A942B03D1FB6851
:102B180001221A7102E0FB6800221A71FFF742FED7
:102B2800FB7A1946F86800F04FF90023BB820AE0E7
:102B3800BB8A7A6813441B781946F86800F044F990
:102B4800BB8A0133BB82BA8A3B899A42F0D3FFF72A
:102B580019FEFB7A842B02D0F86800F007FAFB68AC
:102B68009B68002B02D00123FB7501E00023FB7555
:102B7800FB6801229A71FB6800225A71FB7D00E014
:102B8800022318461837BD4680BD80B588B000AF0F
:102B9800F8607A601A460B46FB7213463B817B68E5
:102BA800BB61FB689B79DBB2012B3DD1FB685B798C
:102BB800012B01D1022338E0FB6801225A71F86821
:102BC80000F0B0F9FFF7EEFDFB7A1946F86800F05F
:102BD800FBF80021F86800F0F7F80023FB8209E011
:102BE800B969F86800F046F9BB690133BB61FB8A33
:102BF8000133FB82FA8A3B899A42F1D3FFF7C2FD7F
:102C0800F86800F0B3F9FB689B68002B02D0012339
:102C1800FB7701E00023FB77FB6801229A71FB68D0
:102C280000225A71FB7F00E0022318462037BD4678
:102C380080BD80B586B000AFF8607A601A460B4652
:102C4800FB7213463B81FB689B79DBB2012B3ED1BB
:102C5800FB685B79012B01D1022339E0FB68012273
:102C68005A71F86800F05EF9FFF79CFD0E21F868CC
:102C780000F0AAF8FB7A1946F86800F0A5F80023D6
:102C8800BB820AE0BB8A7A6813441B781946F86845
:102C980000F09AF8BB8A0133BB82BA8A3B899A4210
:102CA800F0D3FFF76FFDF86800F060F9FB689B68E8
:102CB800002B02D00123FB7501E00023FB75FB68A4
:102CC80001229A71FB6800225A71FB7D00E0022301
:102CD80018461837BD4680BD80B588B000AFF8608B
:102CE8007A601A460B46FB7213463B817B68BB61D0
:102CF800FB689B79DBB2012B41D1FB685B79012B27
:102D080001D102233CE0FB6801225A71F86800F007
:102D180009F9FFF747FD1E21F86800F055F8FB7A1E
:102D28001946F86800F050F80021F86800F04CF8EF
:102D38000023FB8209E0B969F86800F09BF8BB69D9
:102D48000133BB61FB8A0133FB82FA8A3B899A42D1
:102D5800F1D3FFF717FDF86800F008F9FB689B68E6
:102D6800002B02D00123FB7701E00023FB77FB68EF
:102D780001229A71FB6800225A71FB7F00E002234E
:102D880018462037BD4680BD80B483B000AF786058
:102D98000C4B1B680B4A23F040031360094A7B68FD
:102DA80043F441731360074B4FF4B8525A60054B14
:102DB8001B68044A43F04003136000BF0C37BD464C
:102DC80080BC70470000015880B487B000AF7860BD
:102DD8000B46FB700023FB75234B1A681346DB0078
:102DE8009B1A9B00DB0C642202FB03F3FB60FB686D
:102DF800002B05D10123FB757B6801229A6008E04E
:102E0800FB68013BFB60194B9B6803F00203022B34
:102E1800EDD1174B3B613B69FA781A70124B1A686F
:102E28001346DB009B1A9B00DB0C642202FB03F3B6
:102E3800FB60FB68002B05D10123FB757B68012231
:102E48009A6008E0FB68013BFB60084B9B6803F055
:102E58000103012BEDD1054BDB68FB7D18461C37C0
:102E6800BD4680BC704700BF00000020000001582C
:102E78000C00015880B487B000AF78603960002337
:102E8800FB75254B1A681346DB009B1A9B00DB0C6D
:102E9800642202FB03F3FB60FB68002B05D10123CE
:102EA800FB757B6801229A6008E0FB68013BFB60C8
:102EB8001A4B9B6803F00203022BEDD1184B3B61C0
:102EC8003B69FF221A70144B1A681346DB009B1AE1
:102ED8009B00DB0C642202FB03F3FB60FB68002B06
:102EE80005D10123FB757B6801229A6008E0FB6825
:102EF800013BFB60094B9B6803F00103012BEDD1FB
:102F0800064BDB68DAB23B681A70FB7D18461C3743
:102F1800BD4680BC704700BF00000020000001587B
:102F28000C00015880B584B000AF78607B681B79CD
:102F3800012B11D10C4B1A6813465B001344DB00BC
:102F48001B0CFB60FFF72EFCFB68013BFB60FB687A
:102F5800002BF9D1FFF716FC786800F007F8034654
:102F680018461037BD4680BD0000002080B586B0E9
:102F780000AF78600023FB75124B1A6813465B009C
:102F88001344DB001B0D642202FB03F3FB60FFF715
:102F980037FC3861FB68002B05D10123FB757B6882
:102FA80002229A6009E0FB68013BFB60FFF716FC10
:102FB80002463B691340012BE9D0FB7D18461837C0
:102FC800BD4680BD0000002080B483B000AF7860AB
:102FD8004FF0B043D3F888207B681A407B681B0405
:102FE800134318460C37BD4680BC704780B483B085
:102FF80000AF78604FF0B043D3F888207B68134067
:1030080018460C37BD4680BC704780B582B000AF0B
:1030180078607B68002B01D1012342E07B68D3F8FC
:103028008430002B06D17B68002283F880207868E2
:10303800FDF72EFD7B682422C3F884207B681B687B
:103048001A687B681B6822F001021A60786800F031
:10305800C3F80346012B01D1012322E07B689B6A58
:10306800002B02D0786800F007FB7B681B685A6861
:103078007B681B6822F490425A607B681B689A68D8
:103088007B681B6822F02A029A607B681B681A68B2
:103098007B681B6842F001021A60786800F08DFBBB
:1030A800034618460837BD4680BD80B58AB002AFD2
:1030B800F860B9603B601346FB80FB68D3F8843046
:1030C800202B40F08380BB68002B02D0FB88002BAC
:1030D80001D101237BE0FB6893F88030012B01D1FB
:1030E800022374E0FB68012283F88020FB68002239
:1030F800C3F88C20FB682122C3F88420FDF7B7FAB7
:103108007861FB68FA88A3F85420FB68FA88A3F86A
:103118005620FB689B68B3F5805F08D1FB681B6984
:10312800002B04D10023FB61BB68BB6103E0BB68D3
:10313800FB610023BB61FB68002283F880202CE040
:103148003B6800937B6900228021F86800F080FBCF
:103158000346002B01D0032339E0FB69002B0BD178
:10316800BB691B881A46FB681B68C2F308029A628F
:10317800BB690233BB6107E0FB691A78FB681B680F
:103188009A62FB690133FB61FB68B3F856309BB266
:10319800013B9AB2FB68A3F85620FB68B3F8563097
:1031A8009BB2002BCCD13B6800937B690022402165
:1031B800F86800F04DFB0346002B01D0032306E01E
:1031C800FB682022C3F88420002300E0022318466D
:1031D8002037BD4680BD0000B0B588B000AF78602C
:1031E8000023BB767B689A687B681B691A437B68F7
:1031F8005B691A437B68DB691343FB617B681B6867
:103208001A68AB4B13407A681268F9690B4313606C
:103218007B681B685B6823F440517B68DA687B68CD
:103228001B680A435A607B689B69FB617B681B6863
:10323800A04A934204D07B681B6AFA691343FB6176
:103248007B681B689B6823F06E4323F430637A68BD
:103258001268F9690B4393607B681B68DB6A23F08B
:103268000F017B685A6A7B681B680A43DA627B68CD
:103278001B68914A934222D10320FFF7A5FE03461B
:10328800A3F54033032B17D801A252F823F000BF4F
:10329800A9320008B5320008AF320008BB32000876
:1032A8000123FB7672E00223FB766FE00423FB76B2
:1032B8006CE00823FB7669E01023FB7666E07B6808
:1032C8001B687E4A934234D10C20FFF77DFE0346EB
:1032D800A3F540230C2B29D801A252F823F000BFF4
:1032E8001D3300083533000835330008353300082E
:1032F8002933000835330008353300083533000812
:103308002333000835330008353300083533000807
:103318002F3300080023FB7638E00223FB7635E0E4
:103328000423FB7632E00823FB762FE01023FB769C
:103338002CE07B681B685F4A934225D14FF44060BC
:10334800FFF754FE0346B3F5406F17D0B3F5406F4F
:1033580017D8B3F5006F0BD0B3F5006F11D8002B59
:1033680003D0B3F5806F06D00BE00023FB760DE0A9
:103378000223FB760AE00423FB7607E00823FB76AA
:1033880004E01023FB7601E01023FB767B681B68C2
:10339800484A934240F09880FB7E082B23D801A22C
:1033A80052F823F0D1330008EF330008D93300086E
:1033B800EF330008DF330008EF330008EF3300086D
:1033C800EF330008E7330008FEF7E0FE78610FE00E
:1033D8003B4B7B610CE0FEF725FE786108E04FF47B
:1033E80000437B6104E000237B610123BB7600BFBF
:1033F8007B69002B00F028817B685B6A314A32F8D0
:1034080013301A467B69B3FBF2F3BB607B685A68DA
:1034180013465B001344BA689A4205D37B685B681D
:103428001B03BA689A4202D90123BB760CE17B6977
:1034380018464FF000017B685B6A224A32F8133065
:103448009AB24FF00003FCF793FE02460B46104673
:1034580019464FF000024FF000030B0243EA1063D5
:10346800020279684968490808464FF000011418B3
:1034780043EB01057B685B681A464FF00003204662
:103488002946FCF775FE02460B4613463B613B692D
:10349800B3F5407F08D33B69B3F5801F04D27B683E
:1034A8001B683A69DA60CFE00123BB76CCE000BF45
:1034B800F369FFCF0080004000380140004400401D
:1034C8000024F400908600087B68DB69B3F5004FA0
:1034D80065D1FB7E082B28D801A252F823F000BF43
:1034E8000D350008153500081D350008333500086E
:1034F8002335000833350008333500083335000814
:103508002B350008FEF742FE786113E0FEF750FE07
:1035180078610FE0564B7B610CE0FEF783FD786124
:1035280008E04FF400437B6104E000237B61012342
:10353800BB7600BF7B69002B00F086807B685B6AE6
:103548004C4A32F813301A467B69B3FBF2F35A003F
:103558007B685B685B081A447B685B68B2FBF3F3C3
:103568009BB23B613B690F2B16D93B69B3F5803F92
:1035780012D23B699BB223F00F03FB813B695B08C6
:103588009BB203F007039AB2FB891343FB817B6864
:103598001B68FA89DA6057E00123BB7654E0FB7EAA
:1035A800082B28D801A252F823F000BFD93500080B
:1035B800E1350008E9350008FF350008EF35000857
:1035C800FF350008FF350008FF350008F73500080B
:1035D800FEF7DCFD786113E0FEF7EAFD78610FE0A5
:1035E800234B7B610CE0FEF71DFD786108E04FF48A
:1035F80000437B6104E000237B610123BB7600BFAD
:103608007B69002B20D07B685B6A1A4A32F813303A
:103618001A467B69B3FBF2F27B685B685B081A4465
:103628007B685B68B2FBF3F39BB23B613B690F2B92
:1036380008D93B69B3F5803F04D27B681B683A69B7
:10364800DA6001E00123BB767B680122A3F86A20D7
:103658007B680122A3F868207B6800221A677B68D0
:1036680000225A67BB7E18462037BD46B0BD00BF52
:103678000024F4009086000880B483B000AF78601E
:103688007B689B6A03F00103002B0AD07B681B68E8
:103698005B6823F400317B68DA6A7B681B680A433D
:1036A8005A607B689B6A03F00203002B0AD07B6890
:1036B8001B685B6823F480317B681A6B7B681B6826
:1036C8000A435A607B689B6A03F00403002B0AD004
:1036D8007B681B685B6823F480217B685A6B7B6876
:1036E8001B680A435A607B689B6A03F00803002B37
:1036F8000AD07B681B685B6823F400417B689A6B7F
:103708007B681B680A435A607B689B6A03F0100356
:10371800002B0AD07B681B689B6823F480517B6868
:10372800DA6B7B681B680A439A607B689B6A03F0C4
:103738002003002B0AD07B681B689B6823F4005188
:103748007B681A6C7B681B680A439A607B689B6A73
:1037580003F04003002B1AD07B681B685B6823F4D6
:1037680080117B685A6C7B681B680A435A607B68C7
:103778005B6CB3F5801F0AD17B681B685B6823F418
:10378800C0017B689A6C7B681B680A435A607B6837
:103798009B6A03F08003002B0AD07B681B685B6878
:1037A80023F400217B68DA6C7B681B680A435A6043
:1037B80000BF0C37BD4680BC704780B586B002AFED
:1037C80078607B680022C3F88C20FCF750FFF86013
:1037D8007B681B681B6803F00803082B0ED16FF089
:1037E8007E430093FB6800224FF40011786800F0D4
:1037F8002FF80346002B01D0032325E07B681B68C4
:103808001B6803F00403042B0ED16FF07E43009372
:10381800FB6800224FF48001786800F019F803462D
:10382800002B01D003230FE07B682022C3F88420FB
:103838007B682022C3F888207B680022DA667B68D0
:10384800002283F88020002318461037BD4680BD2B
:1038580080B59CB000AFF860B9603B601346FB715F
:10386800A9E0BB6FB3F1FF3F00F0A580FCF7FFFEB6
:1038780002463B68D31ABA6F9A4202D3BB6F002B39
:1038880040D1FB681B683B653B6D53E8003FFB6418
:10389800FB6C23F4D0737B66FB681B681A467B6E4F
:1038A800FB65BA65B96DFA6D41E800237B657B6DF0
:1038B800002BE6D1FB681B680833FB63FB6B53E8FE
:1038C800003FBB63BB6B23F001033B66FB681B68CF
:1038D80008333A6EBA647B64796CBA6C41E80023A9
:1038E8003B643B6C002BE5D1FB682022C3F88420A5
:1038F800FB682022C3F88820FB68002283F8802018
:10390800032369E0FB681B681B6803F00403002BB2
:1039180051D0FB681B68DB6903F40063B3F5006FE3
:1039280049D1FB681B684FF400621A62FB681B6888
:10393800BB62BB6A53E8003F7B627B6A23F4D073A7
:10394800FB66FB681B681A46FB6E7B633A63396B40
:103958007A6B41E80023FB62FB6A002BE6D1FB6827
:103968001B6808337B617B6953E8003F3B613B6917
:1039780023F00103BB66FB681B680833BA6E3A6222
:10398800FB61F9693A6A41E80023BB61BB69002B16
:10399800E5D1FB682022C3F88420FB682022C3F805
:1039A8008820FB682022C3F88C20FB68002283F85B
:1039B8008020032310E0FB681B68DA69BB681340AA
:1039C800BA689A420CBF01230023DBB21A46FB797E
:1039D8009A423FF446AF002318467037BD4680BD73
:1039E80080B485B000AF78607B6893F88030012B95
:1039F80001D1022327E07B68012283F880207B68BD
:103A08002422C3F884207B681B681B68FB607B68E2
:103A18001B681A687B681B6822F001021A60FB6841
:103A280023F00053FB607B6800225A667B681B68A2
:103A3800FA681A607B682022C3F884207B68002219
:103A480083F88020002318461437BD4680BC704791
:103A580080B584B000AF786039607B6893F88030B7
:103A6800012B01D102232DE07B68012283F88020FD
:103A78007B682422C3F884207B681B681B68FB6072
:103A88007B681B681A687B681B6822F001021A6051
:103A98007B681B689B6823F060417B681B683A68F9
:103AA8000A439A60786800F04FF87B681B68FA68E8
:103AB8001A607B682022C3F884207B68002283F880
:103AC8008020002318461037BD4680BD80B584B0DD
:103AD80000AF786039607B6893F88030012B01D1A2
:103AE80002232DE07B68012283F880207B68242252
:103AF800C3F884207B681B681B68FB607B681B68B5
:103B08001A687B681B6822F001021A607B681B68D0
:103B18009B6823F060617B681B683A680A439A6077
:103B2800786800F011F87B681B68FA681A607B688F
:103B38002022C3F884207B68002283F88020002399
:103B480018461037BD4680BD80B485B000AF786098
:103B58007B685B6E002B08D17B680122A3F86A2082
:103B68007B680122A3F8682031E00823FB7308234F
:103B7800BB737B681B689B685B0EDBB203F00703B3
:103B88007B737B681B689B685B0FDBB203F00703E2
:103B98003B73BB7B3A7B10498A5C02FB03F33A7B9D
:103BA8000E498A5C93FBF2F39AB27B68A3F86A2009
:103BB800FB7B7A7B08498A5C02FB03F37A7B074923
:103BC8008A5C93FBF2F39AB27B68A3F8682000BF83
:103BD8001437BD4680BC7047A8860008B086000828
:103BE80080B584B002AF7860214A7B681360214BAE
:103BF80000225A701F4B00225A601E4B00229A6006
:103C08001D4801F07BFE002001F018F802F00CF9C5
:103C18000021002002F062FC04220021012002F0B1
:103C28008DFA002300224FF6FF714FF6FF7002F065
:103C3800C1F900F095FE00230093104B00224FF0CD
:103C4800FF310F4803F080F8002300930D4B00224A
:103C58004FF0FF310C4803F077F8094803F018F9E2
:103C6800094803F015F900BF0837BD4680BD00BFFD
:103C78009401002000030020294D0008B14C0008E1
:103C880058030020C54C00087003002080B500AF21
:103C980001F076FE0346072B0AD0072B0ADC042B1B
:103CA80002D0052B02D005E0022304E0012302E044
:103CB800032300E00023184680BD000080B582B0D1
:103CC80000AF0346FB71254AFB791370FB79184650
:103CD80002F037FFFB79013B032B0BD801A252F806
:103CE80023F000BF0B3D0008313D00083F3D0008B0
:103CF8004D3D0008002002F0FBF9184B00225A73D2
:103D080028E0012002F0F4F9144B5A7B134B1B7B7B
:103D18009A421ED0114B1A7B104B5A730F4B5B7B88
:103D2800184600F08BFF14E0022002F0E1F90B4B7B
:103D380000225A730EE0022002F0DAF9074B002243
:103D48005A7307E0002002F0D3F9044B00225A739B
:103D580000E000BF00BF0837BD4680BD000300205B
:103D680080B582B000AF7860786802F07FF900BF54
:103D78000837BD4680BD80B590B00AAFF860B9601D
:103D88003B601346FB800123FB750023BB820023A5
:103D98003B6100F0F8FD0020FFF790FFF868FFF79F
:103DA800DFFF0123099300230893002307930023CF
:103DB8000693002305930023049300230393002311
:103DC800029303230193BB68009300234FF41672F8
:103DD800B968002000F040F8002000F0DBFD00F09A
:103DE8005BFF03461846FCF749FC03F0EBF8386123
:103DF8000DE0002000F0A0FE0346BB82B7F91420B6
:103E0800B7F906309A4202DD0023FB7506E03869EF
:103E180003F0EAF802463B689342EAD800F0B3FDA3
:103E2800FB7D18461837BD4680BD80B582B000AF0F
:103E380000237B600120FFF741FF002300220021BF
:103E4800002002F0B7F801F06CFE78607B68184635
:103E58000837BD4680BD000080B58AB000AFB960A4
:103E68007A601A460346FB731346BB73BD4A97F83C
:103E78005430537002F023FE97F85430002B01D0D1
:103E880000233B8797F83C30002B04D0B64A97F8BC
:103E98004030137002E0B44BFF221A70FB7B042BF6
:103EA80009D0042B00F3DA81002B00F0BF80012B2E
:103EB80000F02C81D2E1012001F078FFA94B00220B
:103EC80083F83820A74A7B68D363A64B092283F876
:103ED8004420A44B4FF448721A64B86802F020FDDD
:103EE80003461A469F4B83F845209E4B00229A733F
:103EF800BB8EDB009AB29B4B1A829A4B00229A74B3
:103F0800984B1022DA74974B00221A75954B0022B1
:103F18005A75954B1A78934B9A75924B0122DA751C
:103F2800904B00221A760420FFF7C8FE8F4802F053
:103F38006BF98F4802F034FA8E4A07F11C0392E8B5
:103F4800030083E8030007F11C03184601F067FD2E
:103F580040F2FF1001F0B2FD40F6B80000F00BFE91
:103F6800034687F8273097F8273023F0100387F89F
:103F7800273097F82730194640F6B80000F0E9FDD9
:103F8800042140F6B90000F0E4FD40F69B0000F083
:103F9800F2FD034687F8273097F8273023F01C03F3
:103FA80087F8273097F8273043F00803DBB2194623
:103FB80040F69B0000F0CDFD40F2D16000F0DBFD43
:103FC800034687F8273097F8273023F0180387F837
:103FD800273097F8273043F01803DBB2194640F230
:103FE800D16000F0B6FD40F2AC6000F0C4FD0346BD
:103FF80087F8273097F8273023F0700387F82730A1
:1040080097F8273043F05003DBB2194640F2AC6012
:1040180000F09FFD3B8F4FF4FA5202FB03F31A4660
:104028007B68B2FBF3F34F4A936018E1002001F07C
:10403800BDFE4C4B002283F838204A4A7B68D36384
:10404800484B0B2283F84420B86802F069FC034609
:104058001A46444B83F84520424B00229A73BB8E84
:10406800DB009AB23F4B1A823E4B04229A743D4BB6
:104078001822DA743B4B00221A7597F83C3083F00B
:104088000103DBB21A46374B5A75374B1A78354B52
:104098009A7597F84430002B03D0324BF222DA7528
:1040A80002E0304B0122DA752E4B01221A7600F01D
:1040B8006AFC2C4B93F83830002B14BF01230023E3
:1040C800DBB21846FFF7FAFD284802F09DF82848A9
:1040D80002F066F9284A07F1140392E8030083E81E
:1040E800030007F11403184601F099FC40F2FF1091
:1040F80001F0E4FC3B8F4FF4FA5202FB03F31A463B
:104108007B68B2FBF3F3174A9360A8E0002001F044
:104118004DFE144B012283F838207B68DAB2114B2C
:1041280083F85020154ABB6813441A780D4B83F85E
:1041380051200C4ABB7B82F85230BB68002B05D15A
:104148007B680B2B08D07B680C2B05D0BB68012B38
:1041580016D17B680C2B13D1024B012283F8532014
:1041680012E000BF000300200900002038030020EF
:104178000E03002090850008988500083C870008F9
:10418800394B002283F85320374B01229A73364B60
:1041980093F85030052B04D0334B93F85030062B4E
:1041A8000AD1BB8E0B2B03D82F4B0C229A8306E027
:1041B8002D4ABB8E938302E02B4ABB8E938397F8DC
:1041C8003C20294B9A77294B1A78274BDA7797F8AE
:1041D8004420254B83F8202097F85020224B83F861
:1041E800212000F0D0FB204B93F83830002B14BF6F
:1041F80001230023DBB21846FFF760FD1C4802F0DC
:1042080003F81C4802F0CCF83B8FDBB2184601F0EB
:10421800DCFD154B93F82130012B0DD140F236709F
:1042280002F01AFA034623F00403DBB2194640F2FF
:10423800367002F0FDF90CE040F2367002F00CFA2C
:10424800034643F00403DBB2194640F2367002F02D
:10425800EFF9054B4FF6FF729A6000E000BF00BF10
:104268002837BD4680BD00BF00030020090000209C
:10427800380300200E03002080B586B000AFBA6076
:104288007B600346FB730B46BB7302F018FCFB7B99
:10429800032B00F0D780032B00F3E680002B02D01D
:1042A800012B61D0E0E07C4B002283F838207A4A69
:1042B8003B6AD363784B0B2283F84420786802F07A
:1042C8002FFB03461A46744B83F84520724ABB6895
:1042D8001364714B00229A733B8DDB009AB26E4BCC
:1042E8001A826D4B04229A746B4B1822DA746A4B4B
:1042F80000221A7597F82C3083F00103DBB21A46B6
:10430800654B5A7597F83030002B03D0624BF22278
:10431800DA7502E0604B0122DA755F4B01221A76EA
:1043280000F031FB5C4B93F83830002B14BF0123AD
:104338000023DBB21846FFF7C1FC584801F064FFC0
:10434800574802F02DF8574A07F1100392E8030086
:1043580083E8030007F11003184601F060FB40F200
:10436800FF1001F0ABFB80E04B4B012283F83820B3
:104378003B6ADAB2484B83F850204B4A7B681344B7
:104388001A78454B83F85120434A97F8243082F82D
:1043980052307B68002B05D13B6A0B2B08D03B6A57
:1043A8000C2B05D07B68012B07D13B6A0C2B04D161
:1043B800394B012283F8532003E0374B002283F85E
:1043C8005320354B01229A73334B93F85030052B09
:1043D80004D0314B93F85030062B0AD13B8D0B2B70
:1043E80003D82D4B0C229A8306E02B4A3B8D9383EE
:1043F80002E0294A3B8D938397F82C20264B9A7725
:104408002A4B1A78244BDA7797F83020224B83F816
:10441800202097F83C20204B83F8212000F0B3FAA5
:104428001D4B93F83830002B14BF01230023DBB257
:104438001846FFF743FC194801F0E6FE184801F05A
:10444800AFFF12E00320FFF739FC134B022283F879
:104458003820114A3B6A93640F4B162283F84C208C
:104468000E4801F0D1FE00E000BF97F90E30184663
:1044780002F0FAF903461A46074B83F85620064B12
:1044880093F85630184602F02EFB034A3B6C5360F3
:1044980000BF1837BD4680BD000300203803002048
:1044A8000E030020988500083C87000809000020BA
:1044B80080B483B000AF7860012318460C37BD463E
:1044C80080BC704780B485B000AF0346FB71002301
:1044D800FB60FB790A2B3ED801A252F823F000BFFB
:1044E80015450008254500083545000845450008DC
:1044F8004D45000853450008594500085F45000828
:104508001D4500082D4500083D45000841F6846317
:10451800FB6020E042F6B103FB601CE043F6095360
:10452800FB6018E045F26113FB6014E047F61223C4
:10453800FB6010E04AF2C323FB600CE04FF2244317
:10454800FB6008E0074BFB6005E0074BFB6002E0FF
:10455800064BFB6000BFFB6818461437BD4680BC9D
:10456800704700BF48E8010090D0030020A1070071
:1045780080B483B000AF7860084611461A460346F7
:10458800FB700B463B801346BB703B88DB00BA7858
:1045980082F00102D2B2002A01D0082200E00022F3
:1045A800134403F118023B7C397D002901D0022114
:1045B80000E000210B44DB00134418460C37BD46CD
:1045C80080BC704780B48BB000AFF860B96011460A
:1045D8001A460B46FB711346BB80FB7904337B619B
:1045E800002387F82730BB68052B02D0BB68062B51
:1045F80004D1BB880B2B01D80C23BB80FB68002B94
:1046080005D1BB680B2B08D0BB680C2B05D0FB6809
:10461800012B05D1BB680C2B02D1012387F8273069
:1046280097F83430DB0097F83820002A01D01022A0
:1046380000E0002213441A46BB689B00D31A97F87F
:104648003020002A01D0002200E014221344FB612C
:10465800BB68062B03D8BB689B003B620EE0FB6976
:104668000833FB6197F82730002B04D0BB68023B66
:104678009B003B6202E0BB689B003B62FB69002B2E
:1046880001DA0023FB61FA693B6A13445A1E3B6A4C
:1046980092FBF3F37A6902FB03F2BB8813440C33F1
:1046A800BB61BB68062B02D8BB690233BB61BB691F
:1046B8009B005A1CBB68023B02FA03F318462C37CE
:1046C800BD4680BC7047000080B58AB004AFB960B1
:1046D8007A601A460346FB731346BB7300237B615B
:1046E80001233B61FB7B002B02D0012B17D035E067
:1046F80097F824003A8CB97B97F82C30019397F8F7
:104708002830009303467868FFF732FF03464FF4DA
:104718007A7202FB03F37B617B683B611EE0398C94
:10472800BA7B97F82C30029397F82830019397F8C2
:10473800243000930B467968B868FFF743FF0346B7
:104748004FF47A7202FB03F37B610A4ABB68134495
:104758001B781846FFF7B6FE386100BF7A693B69D7
:1047680013445A1E3B69B2FBF3F318461837BD468B
:1047780080BD00BF3C87000880B584B000AF78607A
:104788000B46FB700023002240F2012140F2012079
:1047980001F010FC6E4B93F856300121184602F0D8
:1047A8003BF86B4B1B78012B12D1694B93F85130B6
:1047B800062B0DD140F6890001F04EFF034623F089
:1047C8000403DBB2194640F6890001F031FF0CE022
:1047D80040F6890001F040FF034643F00403DBB2D2
:1047E800194640F6890001F023FF594B1B78032B2B
:1047F80000F29F8001A252F823F000BF2F48000862
:104808001548000883480008A3480008504AFB7868
:10481800D377504801F0C4FDFB7800221946786828
:1048280001F0EAF886E002F050F90346012B17D1AF
:1048380007F10D02FB781946786802F05EF9034625
:10484800002B40F081807A7B414B9A75414801F0FA
:10485800A7FD7B7B00221946786801F0CDF869E056
:104868003B4AFB7893753B4801F09AFDFB780022A0
:104878001946786801F0C0F85CE0354B02229A735B
:10488800334AFB789376334801F08AFDFB7800229F
:104898001946786801F0B0F84CE0FB781A46796858
:1048A8002D4800F030FC2A4B02229A73FB78013322
:1048B800DAB2274B9A76274801F072FD0021F120E1
:1048C80000F047F90021F02000F043F9204B9B6CE1
:1048D800642B08D17021F32000F03BF91D21F22050
:1048E80000F037F907E0E121F32000F032F9042164
:1048F800F22000F02EF9FB789BB2DB009BB202336A
:10490800FB81FB891B0A9BB2DBB21946F42000F03D
:1049180020F9FB89DBB21946F52000F01AF9FB787B
:104928000133DBB26FF07F4219460B4801F064F89F
:1049380000E000BF064B5B681946084802F018FB08
:10494800064802F037FA00E000BF1037BD4680BDC8
:10495800000300200E0300209400002058030020CC
:1049680080B582B000AF00233B713B7943F004036C
:104978003B71387901F01CF90220FBF77FFE00BF7C
:104988000837BD4680BD80B500AF002001F042F970
:1049980000BF80BD80B582B000AF786002F095F8A6
:1049A8000346012B02D102F0B8F807E000230022E9
:1049B80040F2622140F2622001F0FCFA7B68002B91
:1049C80006D079680F4802F0D3FA0E4802F0F2F9DF
:1049D8000D4B93F856300021184601F01DFF0A4B85
:1049E8005B78002B04D06FF07F4001F04FF905E0B1
:1049F800054B9B689B01184601F048F900BF083732
:104A0800BD4680BD700300200003002080B582B041
:104A180000AF786002F059F80346012B02D102F08A
:104A28007CF807E00023002240F2622140F2622075
:104A380001F0C0FA7B68002B06D079680F4802F0B5
:104A480097FA0E4802F0B6F90D4B93F8563000214C
:104A5800184601F0E1FE0A4B5B78002B04D06FF09A
:104A68007F4001F033F905E0054B9B689B01184630
:104A780001F02CF900BF0837BD4680BD7003002047
:104A88000003002080B582B000AF78603960074B22
:104A980093F856300021184601F0BEFE3968786850
:104AA80001F038F900BF0837BD4680BD000300207B
:104AB80080B500AF094B93F856300021184601F035
:104AC800ABFE002300224FF4C0714FF4C07001F018
:104AD80071FA01F04BF900BF80BD00BF0003002050
:104AE80080B584B000AF78600B46FB7013463B80FE
:104AF8003B884FF47A7202FB03F3FB60786801F09D
:104B0800B5FA97F90330184601F0AEFE0346FB727A
:104B1800FB7A0121184601F07FFE01F035F9F968AA
:104B2800044802F025FA034802F044F900BF1037A0
:104B3800BD4680BD5803002080B582B000AF034653
:104B4800FB7101F0E2FC03461BB218460837BD466C
:104B580080BD80B582B000AF03460A46FB8013468D
:104B68007B717A79FB881146184601F061FD00BF18
:104B78000837BD4680BD80B582B000AF0346FB80D4
:104B8800FB88184601F068FD034618460837BD46FD
:104B980080BD80B582B000AF03463960FB80134604
:104BA8007B717B799AB2FB883968184601F068FDF9
:104BB80000BF0837BD4680BD80B582B000AF034650
:104BC8003960FB8013467B717B799AB2FB88396820
:104BD800184601F077FD00BF0837BD4680BD0000CC
:104BE80080B582B000AF03460A46FB711346BB711D
:104BF800FB79012B0AD10E4ABB7913700C4B1A783A
:104C08000C4BDA770C4801F0CBFB0DE0094B5B7DD0
:104C1800012B09D1064ABB791370054B1A78054B4D
:104C28009A75054801F0BCFB00BF0837BD4680BD3A
:104C380009000020000300200E03002080B582B088
:104C480000AF0346FB71134AFB791373114B1A7BB0
:104C5800104B5A730120FFF731F8FB79002B0AD06B
:104C680034214FF4E86001F0E3FC442140F2417044
:104C780001F0DEFC09E014214FF4E86001F0D8FCF3
:104C8800242140F2417001F0D3FC00BF0837BD4633
:104C980080BD00BF0003002080B500AF01F018FE02
:104CA80003460333184680BD80B582B000AF7860F4
:104CB80000F00EF800BF0837BD4680BD80B582B051
:104CC80000AF786000F018F800BF0837BD4680BD17
:104CD80080B500AF074B1B68002B08D0054B1B683D
:104CE8005B68002B03D0034B1B685B68984700BFC9
:104CF80080BD00BF9401002080B500AF074B1B6842
:104D0800002B08D0054B1B68DB68002B03D0034B36
:104D18001B68DB68984700BF80BD00BF9401002076
:104D280080B582B000AF0346FB80054AFB88A2F835
:104D3800543000F007F800BF0837BD4680BD00BFFB
:104D48000003002090B583B000AF0023FB7100235F
:104D58003B60B44BB3F85430B3F5007F00F00C81DE
:104D6800B3F5007F00F38481B3F5807F00F0F08015
:104D7800B3F5807F00F37C81802B00F0D580802BF9
:104D880000F37681202B49DC002B40F37181013B35
:104D98001F2B00F26D8101A252F823F02D4E00085E
:104DA800674E0008795000087950000879500008CB
:104DB8007950000879500008E54F0008795000083C
:104DC8007950000879500008795000087950000897
:104DD8007950000879500008795000087950000887
:104DE8007950000879500008795000087950000877
:104DF8007950000879500008795000087950000867
:104E08007950000879500008795000087950000856
:104E18007950000879500008F54F0008402B00F041
:104E28000F8125E1804802F033F8002000F0F2FEFF
:104E380001F052FE0346012B01D101F076FE7B4BB7
:104E48001B68002B00F01681784B1B681B68002B31
:104E580000F01081754B1B681B6898470AE174487D
:104E680002F016F86F4B5B7883F00103DBB2002B7E
:104E780014D0002000F0CEFE002140F6021001F010
:104E8800D7FB40F6441001F0E7FB034643F002036A
:104E9800DBB2194640F6441001F0CAFBFB1DFF22A5
:104EA8001946644800F086FD634801F06FFB5F4BCC
:104EB8001B68002B36D05D4B1B689B68002B31D0DC
:104EC800584B93F82430012B0ED1584B1B689C6823
:104ED800FB7999B2534B93F930301AB2514B93F98D
:104EE80031305448A0471EE04E4BDB6B3A46114622
:104EF800184601F03DFD4D4B1B689C68FB7999B243
:104F0800484B93F9293018B23B6803F5FA734B4ABA
:104F180082FB03C29211DB17D31A5BB202464548E3
:104F2800A04700E000BFB2E0002000F073FE3F4B56
:104F38001B68002B00F0A0803C4B1B689B69002B72
:104F480000F09A80394B1B689B690020984793E0D2
:104F5800002000F05FFE354B1B68002B00F08E80B0
:104F6800324B1B689B69002B00F088802F4B1B6815
:104F78009B690120984781E000F002FD0346042B5D
:104F880013D1294801F084FF002000F043FE274B8D
:104F98001B68002B74D0254B1B685B68002B6FD0F7
:104FA800224B1B685B6898476AE000F0E9FC0346FF
:104FB800052B65D11E4801F06BFF002000F02AFE8A
:104FC8001A4B1B68002B5BD0184B1B68DB68002B47
:104FD80056D0164B1B68DB68984751E001F075FD09
:104FE8000346012B4ED101F0A6FD4BE0104801F01D
:104FF8004FFF0C4B5B7883F00103DBB2002B02D030
:10500800002000F007FE094B1B68002B3CD0074B23
:105018001B68DB68002B37D0044B1B68DB6898479C
:1050280032E000BF00030020580300209401002054
:10503800700300209400002024030020D34D621048
:10504800154B5B7883F00103DBB2002B02D0002004
:1050580000F0E0FD114B1B68002B17D00F4B1B68AD
:105068001B69002B12D00D4B1B681B6998470DE07C
:1050780000BF0CE000BF0AE000BF08E000BF06E088
:1050880000BF04E000BF02E000BF00E000BF00BFB7
:105098000C37BD4690BD00BF0003002094010020DE
:1050A80080B500AF094B93F856300121184601F03E
:1050B800B3FB074B2D214FF4D760984700F06DFEE6
:1050C800044800F0C3FD00BF80BD00BF00030020FE
:1050D8005B4B0008FFFF0F0080B584B000AF0346AC
:1050E800FB7197F90730184601F0BEFB0346FB73C6
:1050F800FB7B0121184601F08FFB00F045FE00BF45
:105108001037BD4680BD80B489B000AFF860B96083
:105118001346FB710023FB770023BB610023BB61AF
:1051280011E0BB69BA6813441A78BB69B9680B44C3
:10513800D243D2B21A70BB69FA68134400221A70BB
:10514800BB690133BB61FB79BA699A42E9DB002389
:10515800BB6149E0BB695A4203F0070302F007024A
:1051680058BF5342DBB2C3F10703FB75BB69002B81
:1051780000DA0733DB10BB75BB6901335A4203F011
:10518800070302F0070258BF5342DBB2C3F107031B
:105198007B75BB690133002B00DA0733DB103B75E5
:1051A800BB7DBA6813441B781A46FB7D42FA03F3A9
:1051B800DBB203F00103FB74FA7FFB7C5340FB77FF
:1051C8003B7DFA6813441B785AB2F97F7B7D01FA5C
:1051D80003F35BB2134359B23B7DFA681344CAB276
:1051E8001A70BB690133BB61FB79DB00BA699A426B
:1051F800B0DBFB7FDB015AB2FB7F9B015BB2134341
:105208005BB2FA7F002A01D1202200E0002213437A
:1052180059B2FB79FA681344CAB21A7000BF24372E
:10522800BD4680BC7047000080B58CB000AFB96047
:105238007A603B600346FB7300237B620023FB61BB
:1052480000233B6201F03BFC7B68002B01D000236C
:105258003B607B68002B14BF01230023DAB2A94B03
:105268005A70FB7B002B03D0012B00F0E880A0E1F3
:10527800BB68DB68002B03D0BB681B69002B02D11D
:105288004FF0FF3396E1BB685B7D082B02D94FF0E6
:10529800FF338FE10023BB620DE0BB689A69BB6AEC
:1052A8001344197807F11C02BB6A13440A461A70A2
:1052B800BB6A0133BB62BB685B7D1A46BB6A93421B
:1052C800EBDBBB681B68002B14BF01230023DBB298
:1052D800184600F06BFD8B4B002283F83820BB6822
:1052E800DB68884AD363BB681A79864B83F8442005
:1052F800BB689B68184601F013FB03461A46814BAE
:1053080083F845207F4B00229A73BB681B699BB2C8
:10531800DB009AB27B4B1A82BB681A7D794B9A7470
:10532800BB685B7DDB00DAB2764BDA74BB6893F856
:105338002220744B1A75BB6893F82330002B05D1D3
:10534800BB68DB69DAB26F4B9A750BE0BB6893F800
:105358002330022B03D16B4BFF229A7502E0694B75
:10536800FF229A75BB6893F82A30022B04D0BB68D9
:1053780093F82330022B2DD1BB6893F82430F12BFE
:105388000CD0BB6893F82430F22B07D0BB6893F895
:105398002430012B02D04FF0FF330BE100233B7682
:1053A800BB687B61584B196807F11003574A1846C8
:1053B80001F078FB0346002B02D04FF0FF33F9E0F1
:1053C800504B00221A764F4B0122DA754D4B0022C2
:1053D8005A750EE0BB6893F824204A4BDA75BB680F
:1053E80093F82A20474B1A76BB6893F82320454B3D
:1053F8005A75FFF7C8FA0020FEF760FC444800F031
:1054080003FF444800F0CCFF07F11C03184600F0E6
:1054180006FBBB681B8C184600F050FBBB68DB8C96
:10542800184600F02BFB3B684FF4FA5202FB03F2DC
:10543800BB68DB68B2FBF3F3324A9360B9E0BB6840
:105448009B8E002B02D14FF0FF33B3E0BB6893F87B
:105458003630012B04D1BB68DB6987F82F3002E0B6
:10546800FF2387F82F30BB68DB6A002B14BF0123AA
:105478000023DBB2184600F099FC3B68DBB2184603
:1054880000F0A3FC1F4B012283F83820BB6893F877
:1054980030201C4B83F85020BB6893F83120194BFF
:1054A80083F85120BB6893F83220164B83F85220BA
:1054B800BB6893F83330022B10D0022B2CDC002B66
:1054C80002D0012B05D027E00E4B002283F8532091
:1054D80023E00C4B012283F853201EE0BB6893F8AD
:1054E80030300B2B04D0BB6893F830300C2B04D130
:1054F800044B012283F853200FE0024B002283F86B
:1055080053200AE0000300209401002070030020CB
:10551800380300200E03002000BF284B01229A7395
:10552800BB689A8E254B9A83BB6893F83620234B29
:105538009A77224A97F82F30D377BB6893F83820A8
:105548001E4B83F82020BB6893F839201B4B83F847
:105558002120FFF718FA0120FEF7B0FB184800F0E9
:1055680053FE184800F01CFF144B93F82130012B10
:105578000DD140F2367001F06FF8034623F00403B2
:10558800DBB2194640F2367001F052F80CE040F2F6
:10559800367001F061F8034643F00403DBB21946A4
:1055A80040F2367001F044F8044B4FF6FF729A60EF
:1055B80000BF7B6A18463037BD4680BD0003002017
:1055C800380300200E03002080B58AB000AFB96010
:1055D8007B600346FB731346BB730023FB61002308
:1055E8003B6201F06CFAFB7B022B00F04481022B3A
:1055F80000F36081002B03D0012B00F0B78059E144
:10560800BB689B68002B03D0BB681B69002B02D1C9
:105618004FF0FF3363E1BB681B7D082B02D94FF0C5
:10562800FF335CE100237B620DE0BB689A697B6A0B
:105638001344197807F11C027B6A13440A461A704E
:105648007B6A01337B62BB681B7D1A467B6A934287
:10565800EBDBA54B002283F83820BB689B68A24A85
:10566800D363BB681A78A04B83F84420BB685B6897
:10567800184601F055F903461A469B4B83F8452016
:10568800BB68DB68984A1364974B00229A73BB681F
:105698001B699BB2DB009AB2934B1A82924B04228D
:1056A8009A74BB681B7DDB00DAB28F4BDA748E4BC1
:1056B80000221A75BB6893F82430022B03D0BB680C
:1056C8009B7F022B2AD1BB68DB7FF12B0AD0BB68FA
:1056D800DB7FF22B06D0BB68DB7F012B02D04FF0BB
:1056E800FF33FCE001233B76BB683B617F4B1968C5
:1056F80007F110037E4A184601F0D4F90346002B3F
:1057080002D04FF0FF33EAE0774B00221A76764B4F
:105718000122DA75744B00225A750CE0BB68DA7FF7
:10572800714BDA75BB6893F824206F4B1A76BB6807
:105738009A7F6D4B5A75FFF726F90020FEF7BEFADF
:105748006C4800F061FD6C4800F02AFE07F11C036C
:10575800184600F064F9BB689B8B184600F0AEF958
:10576800BB681B8C184600F089F9A4E05E4B012247
:1057780083F83820BB6893F828205B4B83F85020C7
:10578800BB6893F82920584B83F85120BB6893F8DD
:105798002A20554B83F85220BB6893F82B30022BF4
:1057A80010D0022B22DC002B02D0012B05D01DE0EB
:1057B8004D4B002283F8532019E04B4B012283F80C
:1057C800532014E0BB6893F828300B2B04D0BB6837
:1057D80093F828300C2B04D1434B012283F8532033
:1057E80005E0414B002283F8532000E000BF3E4B08
:1057F80001229A73BB689A8D3B4B9A83BB6893F8D6
:105808002E20394B9A77BB6893F82F20364B83F8B4
:105818002020BB6893F83020334B83F82120FFF712
:10582800B2F80120FEF74AFA324800F0EDFC32489F
:1058380000F0B6FD2C4B93F85130062B0DD140F6F5
:10584800890000F009FF034623F00403DBB2194680
:1058580040F6890000F0ECFE2DE040F6890000F0EB
:10586800FBFE034643F00403DBB2194640F6890009
:1058780000F0DEFE1FE0BB685B6B002B04D0BB684A
:105888005B6BB3F57A7F02D94FF0FF3327E0022034
:10589800FEF714FA144B022283F83820BB685B6BBE
:1058A800114A9364104B162283F84C20114800F0DB
:1058B800ABFC00E000BF97F90E30184600F0D4FFAB
:1058C80003461A46084B83F85620074B93F8563080
:1058D800184601F008F9044A7B685360002318460B
:1058E8002837BD4680BD00BF00030020940100207A
:1058F80058030020380300200E03002080B584B030
:1059080000AF78607B68002B02D01A4A7B6813606E
:10591800FAF78AFE022000F0E2FF174B00221A7005
:10592800002000F077F901F0DEF90346012B0ED1D3
:105938004021012000F078FB002140F6111000F012
:1059480077FE7F233B73387B00F085FA09E020213E
:1059580040F6111000F06CFE202140F6121000F005
:1059680067FE01F09DF9054B01221A7000BF103740
:10597800BD4680BDA4010020A001002098010020A0
:1059880080B400AF024B1B781846BD4680BC7047F8
:105998009801002080B582B000AF78600B46FB709C
:1059A800FB781A467968002000F0AEFE00BF083781
:1059B800BD4680BD80B586B000AFF860B9601346BB
:1059C800FB710023FB7507F117031946B86800F04F
:1059D800B1FDBB681B78FA799A4201D2012307E02E
:1059E800F87DBB681B781A46F96800F0AFFE002303
:1059F80018461837BD4680BD80B584B000AFF86042
:105A08000B467A60FB72FB7A1946F868FFF7C2FF0B
:105A1800786800F01BF900BF1037BD4680BD80B51F
:105A280082B000AF7860082279684FF4D86000F03F
:105A380027FE002318460837BD4680BD80B584B0D0
:105A480000AF0346FB80FB881B0A9BB2DBB23B73AB
:105A5800FB88DBB27B7300F067FB0346002B08D1A1
:105A680007F10C030222194640F2BC6000F008FE60
:105A780000E000BF00BF1037BD4680BD80B584B0D0
:105A880000AF0346FB80FB881B0A9BB2DBB23B736B
:105A9800FB88DBB27B7300F047FB0346002B08D181
:105AA80007F10C030222194640F2BE6000F0E8FD3F
:105AB80000E000BF00BF1037BD4680BD80B584B090
:105AC80000AF0346FB800023FB7300F02DFB034669
