:100000000C9463000C94F60C0C94F60C0C94F60C07
:100010000C94F60C0C94F60C0C94F60C0C949F0BB0
:100020000C94F60C0C94F60C0C94F60C0C94F60C48
:100030000C94F60C0C94F60C0C94F60C0C94F60C38
:100040000C94F60C0C94F60C0C94F60C0C94F60C28
:100050000C94F60C0C9421080C94F60C0C94F60CF1
:100060000C94F60C0C94F60C0C94F60C0C94F60C08
:100070000C94F60C0C94F60C0C94F60C0C94F60CF8
:100080000C94F60C0C94F60C0C94F60C0C94F60CE8
:100090000C94F60C0C94F60C0C94F60C0C94F60CD8
:1000A0000C94F60C0C94F60C0C94F60C65066F068A
:1000B000790683068D069706A1060100016080017E
:1000C0006001660019F011241FBECFEFDAE0DEBF39
:1000D000CDBFEAEBF0E040E017C0B591A5913591B6
:1000E0002591059107FD0CC095918591EF01F92FA0
:1000F000E82F05900D92A217B307D9F7FE0104C0AF
:100100001D92A217B307E1F7E63CF40731F70E940E
:10011000A3050C948B00F894FFCFCF93DF93CDB75A
:10012000DEB7A2970FB6F894DEBF0FBECDBF6E8FBD
:100130007F8F88A399A34AA30E9453090E94310C80
:1001400080E090E0A8ECB2E489839A83AB83BC831F
:1001500020E030E04AEF54E469817A818B819C8110
:100160000E94EF0CDC01CB018C8B9D8BAE8BBF8B87
:1001700020E030E040E85FE36C897D898E899F89CB
:100180000E94E50C88232CF481E090E0998F888F01
:100190003FC020E03FEF4FE757E46C897D898E89AF
:1001A0009F890E94EA0C18164CF520E030E040E2EE
:1001B00051E469817A818B819C810E94EF0CDC0182
:1001C000CB01BC01CD010E94CE09DC01CB01998F8E
:1001D000888F0FC088EC90E09B8F8A8F8A8D9B8DD3
:1001E0000197F1F79B8F8A8F888D998D0197998F51
:1001F000888F888D998D892B69F714C06C897D89CA
:100200008E899F890E94CE09DC01CB01998F888F4E
:10021000888D998D9D8F8C8F8C8D9D8D0197F1F799
:100220009D8F8C8F0E94420C80E090E0A8ECB2E49D
:100230008E839F83A887B98720E030E04AEF54E49B
:100240006E817F81888599850E94EF0CDC01CB014E
:100250008A879B87AC87BD8720E030E040E85FE37A
:100260006A857B858C859D850E94E50C88232CF40E
:1002700081E090E09F878E873FC020E03FEF4FE70F
:1002800057E46A857B858C859D850E94EA0C18164B
:100290004CF520E030E040E251E46E817F818885BA
:1002A00099850E94EF0CDC01CB01BC01CD010E94BD
:1002B000CE09DC01CB019F878E870FC088EC90E0D0
:1002C000998B888B888999890197F1F7998B888B0D
:1002D0008E859F8501979F878E878E859F85892B29
:1002E00069F714C06A857B858C859D850E94CE093F
:1002F000DC01CB019F878E878E859F859B8B8A8BA8
:100300008A899B890197F1F79B8B8A8B10924B010D
:100310000E94200C82E40E948B0A8D838D818231A1
:1003200011F08FEF36C00E94910C8E8D9F8DA8A189
:10033000B9A1BC01CD010E949B0360E271EA87E094
:1003400090E00E94D20160E08EE00E94030B60E02A
:100350008FE00E94030B8EE10E948B0A8460682F5D
:100360008EE10E94030B8CE00E948B0A8360682F51
:100370008CE00E94030B64E086E20E94030B8AA1DA
:10038000882F90E060E870E00E940E090E949D0CAA
:1003900080E0A2960FB6F894DEBF0FBECDBFDF910E
:1003A000CF910895CF93DF9300D000D000D0CDB788
:1003B000DEB76B837C838D839E836B817C818D8193
:1003C0009E810E949309DC01CB0120E030EC43EFD9
:1003D00055E4BC01CD010E94E50C18161CF01A82F0
:1003E0001982BCC06B817C818D819E810E949309A2
:1003F000DC01CB0120E030E842E256E4BC01CD0153
:100400000E94E50C18162CF081E090E09A83898315
:10041000A5C06B817C818D819E810E949309DC0146
:10042000CB0120E030EC43E756E4BC01CD010E9453
:10043000E50C18162CF082E090E09A8389838EC038
:100440006B817C818D819E810E949309DC01CB01AF
:1004500020E030E842EA56E4BC01CD010E94E50C00
:1004600018162CF083E090E09A83898377C06B8123
:100470007C818D819E810E949309DC01CB0120E06B
:1004800034E244EF56E4BC01CD010E94E50C18169D
:100490002CF084E090E09A83898360C06B817C813A
:1004A0008D819E810E949309DC01CB0120E034EE16
:1004B00042E257E4BC01CD010E94E50C18162CF075
:1004C00085E090E09A83898349C06B817C818D812E
:1004D0009E810E949309DC01CB0120E034E244E7D5
:1004E00057E4BC01CD010E94E50C18162CF086E003
:1004F00090E09A83898332C06B817C818D819E815B
:100500000E949309DC01CB0120E034E244EF57E480
:10051000BC01CD010E94E50C18162CF087E090E09C
:100520009A8389831BC06B817C818D819E810E940F
:100530009309DC01CB0120E034E244E758E4BC013C
:10054000CD010E94E50C18162CF088E090E09A830B
:10055000898304C089E090E09A8389838DE10E94B9
:100560008B0A282F2F7089819A8182959295907F8E
:100570009827807F9827822B682F8DE10E94030B9C
:10058000000026960FB6F894DEBF0FBECDBFDF91F8
:10059000CF910895CF93DF93CDB7DEB78AE290E095
:1005A0002AE230E0F90120812E7FFC0120838AE2DB
:1005B00090E02AE230E0F90120812D7FFC012083C8
:1005C0008AE290E02AE230E0F90120812B7FFC01F1
:1005D00020838AE290E02AE230E0F9012081277F3F
:1005E000FC01208384E290E024E230E0F9012081E4
:1005F0002F7EFC01208384E290E024E230E0F901C8
:1006000020812F7DFC01208384E290E024E230E011
:10061000F90120812F7BFC01208384E290E024E219
:1006200030E0F90120812F77FC0120838BE290E0FC
:100630002BE230E0F90120812160FC0120838BE274
:1006400090E02BE230E0F90120812260FC01208360
:100650008BE290E02BE230E0F90120812460FC0184
:1006600020838BE290E02BE230E0F90120812860CA
:10067000FC01208385E290E025E230E0F901208151
:100680002061FC01208385E290E025E230E0F90161
:1006900020812062FC01208385E290E025E230E0A9
:1006A000F90120812064FC01208385E290E025E2AD
:1006B00030E0F90120812068FC01208348E050E00F
:1006C00060E070E080E091E00E94D20C48E050E0F1
:1006D00060E070E088E091E00E94D20C48E050E0D9
:1006E00060E070E080E191E00E94D20C109218016D
:1006F00080915F01882F90E0A0E0B0E0BC018A2FDC
:100700000E94B40C8093190180916001882F90E0C1
:10071000A0E0B0E0BC018A2F0E94B40C80931A01C3
:1007200080911A01803118F086E080931A01000050
:10073000DF91CF9108952F923F924F925F926F92E7
:100740007F928F929F92AF92BF92CF92DF92EF9261
:10075000FF920F931F93CF93DF93CDB7DEB72C9704
:100760000FB6F894DEBF0FBECDBF69877A878B873F
:100770009C8789859A85AB85BC855C016D01BB0F23
:10078000880B982FDC01E82EF82E082F182F2A2D21
:100790003B2D4C2D5D2D6E2D7F2D802F912F03E154
:1007A0000E946D0B222E332E442E552E662E772E50
:1007B000882E992EA12C0F2EF8E4BF2EF02D0F2E8F
:1007C000F8EECF2EF02DDD24D394E12CF12C00E0B7
:1007D00010E0222D332D442D552D662D772D882D9B
:1007E000992D0E94850CA22EB32EC42ED52EE62E56
:1007F000F72E082F192FA982BA82CB82DC82ED82D4
:10080000FE820F83188729813A814B815C816D813B
:100810007E818F81988500E10E94AD0AA22EB32EC1
:10082000C42ED52EE62EF72E082F192F8A2D682FCD
:1008300086E00E94030B29813A814B815C816D81A6
:100840007E818F81988508E00E94AD0AA22EB32E8A
:10085000C42ED52EE62EF72E082F192F8A2D682F9D
:1008600087E00E94030B8981682F88E00E94030BB8
:1008700000002C960FB6F894DEBF0FBECDBFDF91FF
:10088000CF911F910F91FF90EF90DF90CF90BF908D
:10089000AF909F908F907F906F905F904F903F9020
:1008A0002F900895CF93DF93CDB7DEB78DE290E020
:1008B0002DE230E0F90120812F7BFC0120838EE2C4
:1008C00090E02EE230E0F90120812064FC012083D9
:1008D0008AE690E02AE630E0F90120812063FC01FD
:1008E00020838DE390E02DE330E0F9012081206446
:1008F000FC01208380916201882F90E0A0E0B0E0AD
:10090000BC018A2F0E94B40C80931B01809163016B
:10091000882F90E0A0E0B0E0BC018A2F0E94B40CC8
:1009200080931C0180911B018F3F49F480911B0132
:100930008F3F29F410921C0181E080931B018BE111
:1009400091E00E94FD0980916401882F90E0A0E071
:10095000B0E0BC018A2F0E94B40C809340018091CA
:1009600040018A3010F01092400180916501882F7B
:1009700090E0A0E0B0E0BC018A2F0E94B40C80930C
:100980003F0180913F01823120F081E180933F015E
:1009900007C080913F01823018F482E080933F01CC
:1009A00080914001882F90E0A0E0B0E09C01AD0173
:1009B00060E271EA87E090E00E94640CDC01CB0108
:1009C000805B994DAB48BC4C8093410190934201B0
:1009D000A0934301B093440120913F0180914101D4
:1009E00090914201A0914301B0914401422FBC017A
:1009F000CD010E948D000000DF91CF910895CF932B
:100A0000DF931F92CDB7DEB7198294C08091190190
:100A1000882F90E02981222F30E002C0959587959C
:100A20002A95E2F781709927892B71F18981882FA6
:100A300090E0885F9E4FFC01908180916101891751
:100A400088F480911801482F8981282F30E081E0B7
:100A500090E002C0880F991F2A95E2F7842B8093BB
:100A6000180165C080911801482F8981282F30E036
:100A700081E090E002C0880F991F2A95E2F78095E7
:100A800084238093180153C08981882F90E0885F68
:100A90009E4FFC019081809161018917C0F4809183
:100AA0001801482F8981282F30E081E090E002C0B2
:100AB000880F991F2A95E2F7842B8093180189816A
:100AC000882F90E0805F9E4FFC01108230C08981AA
:100AD000882F90E09C01205F3E4FF90120812F5F1D
:100AE000805F9E4FFC0120838981882F90E0805F8A
:100AF0009E4FFC01908180911A019817C0F080915F
:100B00001801482F8981282F30E081E090E002C051
:100B1000880F991F2A95E2F7809584238093180106
:100B20008981882F90E0805F9E4FFC01108289812F
:100B30008F5F89838981883008F468CF00000F9027
:100B4000DF91CF910895CF93DF9300D000D0CDB740
:100B5000DEB719821A821B821C82F894A89584E061
:100B600090E088709927892B11F088E201C088E015
:100B700094E09770892B982F88E10FB6F894A89588
:100B8000809360000FBE909360000E941F0B0E9434
:100B900052040E94CA02109245016CE783E00E9451
:100BA000320682E090E088709927892B11F088E264
:100BB00001C088E092E09770892B982F88E10FB6EA
:100BC000F894A895809360000FBE9093600078948D
:100BD000A89580915D018823D9F30E94ED0B1092B6
:100BE0005D010E94FF0480911B0180931F01809191
:100BF0001C018093200189819A81AB81BC8101967F
:100C0000A11DB11D89839A83AB83BC8389819A819D
:100C1000AB81BC81883C9105A105B10520F48FEF23
:100C20008093210111C089819A81AB81BC81803977
:100C30009140A105B10520F480EF80931F0104C00D
:100C400019821A821B821C8284E00E94BA066CE31D
:100C500070E084E00E94E60A8091210180958093F3
:100C60002101B6CFCF93DF9300D0CDB7DEB7898314
:100C70006A8384E490E0FC01108285E490E0FC014A
:100C8000108287E490E02A81FC01208384E490E0D4
:100C900024E430E0F90120812260FC012083898175
:100CA000882F90E0092E000CAA0BBB0B41E050E00E
:100CB00026E030E0841B950B2817390708F44BC059
:100CC0008A5A9F4FFC010C94DF0C85E490E025E4E8
:100CD00030E0F90120812160FC0120833CC085E4E3
:100CE00090E025E430E0F90120812260FC012083BE
:100CF00032C085E490E025E430E0F90120812360F2
:100D0000FC01208328C085E490E025E430E0F9016F
:100D100020812460FC0120831EC085E490E025E44E
:100D200030E0F90120812560FC01208314C085E4B6
:100D300090E025E430E0F90120812660FC01208369
:100D40000AC085E490E025E430E0F90120812760C5
:100D5000FC01208300008EE690E02EE630E0F901F1
:100D600020812260FC01208300000F900F90DF9112
:100D7000CF910895CF93DF9300D0CDB7DEB78A83AC
:100D8000198223C08981282F30E08981882F90E043
:100D9000815E9E4FFC0140818981882F90E0019601
:100DA00081709078992324F401978E6F9F6F01963C
:100DB000835E9E4FFC0180814827C901815E9E4F62
:100DC000FC01408389818F5F89838981282F30E0EE
:100DD0008A81882F90E00197281739079CF21982A1
:100DE0008A81882F90E00197815E9E4F20E8FC0168
:100DF000208331C08981882F90E0815E9E4FFC0165
:100E00008081882329F58981882F90E0815E9E4F1B
:100E100021E0FC0120838A81882F90E001972A81BC
:100E2000222F30E021503109215E3E4FF90120810F
:100E3000622F2981422F50E021E030E002C0220FD2
:100E4000331F4A95E2F7262B815E9E4FFC012083DB
:100E500089818F5F89838981282F30E08A81882F5B
:100E600090E00197281739072CF200000F900F909F
:100E7000DF91CF910895CF93DF93CDB7DEB789E2AD
:100E800090E0FC018081882F90E081709927892B68
:100E900029F0809100018F5F8093000189E290E04A
:100EA000FC018081882F90E082709927892B29F09E
:100EB000809101018F5F8093010189E290E0FC0144
:100EC0008081882F90E084709927892B29F0809168
:100ED00002018F5F8093020189E290E0FC01808132
:100EE000882F90E088709927892B29F08091030141
:100EF0008F5F8093030183E290E0FC018081882F63
:100F000090E080719927892B29F0809104018F5FEF
:100F10008093040183E290E0FC018081882F90E0BF
:100F200080729927892B29F0809105018F5F80932A
:100F3000050183E290E0FC018081882F90E08074BD
:100F40009927892B29F0809106018F5F80930601F4
:100F500083E290E0FC01808188232CF480910701DA
:100F60008F5F809307010000DF91CF9108950FC03C
:100F70000E94C40C38F00E94CB0C20F0952311F095
:100F80000C94D90C0C94F30C11240C94BE0C0E94FC
:100F9000480A70F3959FC1F3950F50E0551F629F6B
:100FA000F001729FBB27F00DB11D639FAA27F00DC2
:100FB000B11DAA1F649F6627B00DA11D661F829FE9
:100FC0002227B00DA11D621F739FB00DA11D621FCE
:100FD000839FA00D611D221F749F3327A00D611DEB
:100FE000231F849F600D211D822F762F6A2F1124CD
:100FF0009F5750409AF0F1F088234AF0EE0FFF1F00
:10100000BB1F661F771F881F91505040A9F79E3F56
:10101000510580F00C94D90C0C94BE0C5F3FE4F3A6
:10102000983ED4F3869577956795B795F795E795AC
:101030009F5FC1F7FE2B880F911D9695879597F9B5
:1010400008951F920F9200905F000F9211242F932A
:101050003F934F935F936F937F938F939F93AF9340
:10106000BF93EF93FF93CF93DF93CDB7DEB780911C
:1010700045018F5F809345010E943B0780914501A8
:101080008639D0F01092450180E091E0CC01A0E8D3
:10109000AA2F28E030E0AC016A2F88E091E00E949E
:1010A000860B48E050E060E070E080E091E00E9454
:1010B000D20C81E080935D0180914501823311F46F
:1010C0000E94DC0B0000DF91CF91FF91EF91BF9167
:1010D000AF919F918F917F916F915F914F913F91D0
:1010E0002F910F9000925F000F901F901895882409
:1010F0009924F401E401B0E49F93AA279A158B0484
:101100009C04ED05FE05CF05D007A10798F4AD2F8F
:10111000DC2FCF2FFE2FE92D982C892E982F872F8B
:10112000762F652F542F432F322F2227B85031F7B7
:10113000BF9127C01B2EBF91BB27220F331F441F17
:10114000551F661F771F881F991F881C991CEE1F4B
:10115000FF1FCC1FDD1FAA1FBB1F8A149B04EC05B9
:10116000FD05CE05DF05A007B10748F08A189B08EA
:10117000EC09FD09CE09DF09A00BB10B21601A941F
:10118000E1F62EF49401AF01BE01CD01000C0895EB
:10119000CF93DF9300D000D000D0CDB7DEB79D83D2
:1011A0008C836E8382E20E948B0A882F90E09B835F
:1011B0008A838E81282F30E08A819B81820F931F42
:1011C0008F3F910521F01CF08A8180958E831982D2
:1011D00010C08981882F90E02C813D81820F931F60
:1011E000FC018081682F80E00E94030B89818F5F62
:1011F000898399818E81981760F39A818E81890FF6
:10120000682F82E20E94030B8E8126960FB6F89417
:10121000DEBF0FBECDBFDF91CF910895CF93DF9397
:1012200000D000D0CDB7DEB79A8389837C836B83EF
:101230008B819C81892BB9F489819A8199231CF433
:101240001A82198208C089819A810F9724F08EE052
:1012500090E09A83898389818F5F8067682F89E016
:101260000E94030B18C089819A8102972CF482E0B6
:1012700090E09A83898308C089819A81429724F0FB
:1012800081E190E09A838983898182508068682F08
:1012900089E00E94030B00000F900F900F900F90B9
:1012A000DF91CF910895CF93DF93CDB7DEB784E27E
:1012B00090E024E230E0F90120812160FC012083EC
:1012C00085E290E025E230E0F90120812160FC0117
:1012D000208380E390E020E330E0F9012081216069
:1012E000FC01208381E390E021E330E0F9012081DB
:1012F0002160FC01208384E290E024E230E0F901E7
:1013000020812760FC0120838CE490E02CE430E015
:10131000F90120812065FC0120830000DF91CF913D
:101320000895E89409C097FB3EF4909580957095D8
:1013300061957F4F8F4F9F4F9923A9F0F92F96E921
:10134000BB279395F695879577956795B795F11196
:10135000F8CFFAF4BB0F11F460FF1BC06F5F7F4F33
:101360008F4F9F4F16C0882311F096E911C0772345
:1013700021F09EE8872F762F05C0662371F096E84E
:10138000862F70E060E02AF09A95660F771F881F1D
:10139000DAF7880F9695879597F908950E94500A75
:1013A00088F09F5798F0B92F9927B751B0F0E1F026
:1013B000660F771F881F991F1AF0BA95C9F714C0D6
:1013C000B13091F00E94BD0CB1E008950C94BD0CB9
:1013D000672F782F8827B85F39F0B93FCCF386950F
:1013E00077956795B395D9F73EF49095809570956C
:1013F00061957F4F8F4F9F4F0895CF93DF931F923B
:10140000CDB7DEB7198280911B01881F8827881FFE
:10141000898380911B01982F990F8981890F80936F
:101420001D0180911C01881F8827881F8983809156
:101430001C01982F990F8981890F80931E0100004C
:101440000F90DF91CF910895990F0008550FAA0BC7
:10145000E0E8FEEF16161706E807F907C0F01216C7
:101460001306E407F50798F0621B730B840B950BCA
:1014700039F40A2661F0232B242B252B21F408951F
:101480000A2609F4A140A6958FEF811D811D0895BC
:1014900057FD9058440F551F59F05F3F71F0479525
:1014A000880F97FB991F61F09F3F79F0879508950A
:1014B000121613061406551FF2CF4695F1DF08C029
:1014C000161617061806991FF1CF86957105610546
:1014D00008940895CF93DF931F92CDB7DEB7898329
:1014E000898180934C018981882339F00E94B70B50
:1014F000698182E20E94030B02C00E94CA0B8FEF37
:101500000E94FE0B65E881E00E94030B00000F9033
:10151000DF91CF910895CF93DF9300D000D0CDB766
:10152000DEB78C838C818F7789831B821A820E941D
:101530000F0C89810E94530B198289810E94530BE1
:101540008B830E94200C8B810F900F900F900F9037
:10155000DF91CF91089597FB10F8169400080F9330
:10156000083098F00850232F342F452F562F672F1F
:10157000782F892F902DF4CF05949795879577959F
:10158000679557954795379527950A95AAF70F912F
:101590000895CF93DF931F92CDB7DEB789830E9462
:1015A0009D0C8981882319F00E94B70B02C00E940C
:1015B000CA0B60E08DE00E94030B60E082E20E94B3
:1015C000030B80E00F90DF91CF910895CF93DF93CD
:1015D00000D01F92CDB7DEB789837B836A8381E019
:1015E0000E94C90A69818FE191E00E94C8080E94A7
:1015F000390B86E00E946A0A00000F900F900F904E
:10160000DF91CF910895CF93DF9300D01F92CDB794
:10161000DEB78A836B838A81806889830E940F0C7E
:1016200089810E94530B8B810E94530B0E94200CD6
:1016300000000F900F900F90DF91CF910895CF93FE
:10164000DF93CDB7DEB787E290E027E230E0F90123
:1016500020812068FC01208388E290E028E230E0CD
:10166000F90120812068FC0120830000DF91CF91E7
:101670000895CF93DF93CDB7DEB763E881E00E9492
:10168000030B000082E10E948B0A882F90E0887093
:101690009927892BB9F368E082E10E94030B80E06F
:1016A000DF91CF910895CF93DF931F92CDB7DEB72F
:1016B00089838EE490E02981FC01208300008DE481
:1016C00090E0FC0180818823D4F78EE490E0FC0157
:1016D00080810F90DF91CF9108950F93083090F0A3
:1016E000982F872F762F652F542F432F322F2227A5
:1016F0000850F4CF220F331F441F551F661F771F5A
:10170000881F991F0A95B2F70F910895CF92DF9223
:10171000EF92DC016A01E62E280F391FA217B307EA
:1017200051F0F6014491E7FC40814D934FEFC41A0C
:10173000D40AE40AF3CFEF90DF90CF9008951F9280
:101740000F9200905F000F9211248F93CF93DF933D
:10175000CDB7DEB781E080935E010000DF91CF91CD
:101760008F910F9000925F000F901F901895CF936C
:10177000DF93CDB7DEB781E080934A018DE10E940F
:101780008B0A8160682F8DE10E94030B0000DF91BE
:10179000CF910895CF93DF93CDB7DEB710924A0172
:1017A0008DE10E948B0A8E7F682F8DE10E94030BD2
:1017B0000000DF91CF910895CF93DF93CDB7DEB7CF
:1017C00088E290E028E230E0F90120812F77FC01E7
:1017D00020830000DF91CF910895CF93DF93CDB7A1
:1017E000DEB788E290E028E230E0F901208120684D
:1017F000FC0120830000DF91CF910895CF93DF9308
:101800001F92CDB7DEB78983698182E10E94030B05
:1018100082E10E948B0A0F90DF91CF910895CF93C0
:10182000DF93CDB7DEB785E290E025E230E0F90145
:1018300020812E7FFC0120830000DF91CF9108954D
:10184000CF93DF93CDB7DEB785E290E025E230E0BD
:10185000F90120812160FC0120830000DF91CF91FC
:101860000895CF93DF93CDB7DEB781E390E021E316
:1018700030E0F90120812E7FFC0120830000DF9100
:10188000CF910895CF93DF93CDB7DEB781E390E09A
:1018900021E330E0F90120812160FC012083000078
:1018A000DF91CF910895092E0394000C11F4882341
:1018B00052F0BB0F40F4BF2B11F460FF04C06F5F08
:1018C0007F4F8F4F9F4F0895DB018F939F930E940F
:1018D000A90CBF91AF91A29F800D911DA39F900D68
:1018E000B29F900D11240895A29FB001B39FC00133
:1018F000A39F700D811D1124911DB29F700D811D3C
:101900001124911D0895689401C0E8948F929F92CC
:10191000CF93DF930E947708DF91CF919F908F90B4
:101920000895CF93DF93CDB7DEB760E881E00E94E2
:10193000030B0000DF91CF910895CF93DF93CDB7D4
:10194000DEB761E881E00E94030B0000DF91CF91D8
:1019500008950E94740CA59F900DB49F900DA49FB4
:10196000800D911D11240895CB01F999FECF92BDF0
:1019700081BDF89A992780B50895E894BB2766271A
:101980007727CB0197F9089500240A9416161706B5
:1019900018060906089500240A9412161306140660
:1019A00005060895DC0101C06D9341505040E0F7F9
:1019B000089597F99F6780E870E060E00895EE0F62
:1019C000FF1F0590F491E02D09940E94240A08F469
:1019D00081E008950E94240A08F48FEF08950E9480
:1019E000B7070C94530C9FEF80EC08950C94000003
:0619F000015F0203040583
:00000001FF
